{
  "contractName": "MasterChef",
  "abi": [
    {
      "inputs": [
        {
          "internalType": "contract Krill",
          "name": "_krill",
          "type": "address"
        },
        {
          "internalType": "address",
          "name": "_devaddr",
          "type": "address"
        },
        {
          "internalType": "address",
          "name": "_feeAddress",
          "type": "address"
        },
        {
          "internalType": "uint256",
          "name": "_krillPerBlock",
          "type": "uint256"
        },
        {
          "internalType": "uint256",
          "name": "_startBlock",
          "type": "uint256"
        }
      ],
      "stateMutability": "nonpayable",
      "type": "constructor"
    },
    {
      "anonymous": false,
      "inputs": [
        {
          "indexed": true,
          "internalType": "address",
          "name": "user",
          "type": "address"
        },
        {
          "indexed": true,
          "internalType": "uint256",
          "name": "pid",
          "type": "uint256"
        },
        {
          "indexed": false,
          "internalType": "uint256",
          "name": "amount",
          "type": "uint256"
        }
      ],
      "name": "Deposit",
      "type": "event"
    },
    {
      "anonymous": false,
      "inputs": [
        {
          "indexed": true,
          "internalType": "address",
          "name": "user",
          "type": "address"
        },
        {
          "indexed": true,
          "internalType": "uint256",
          "name": "pid",
          "type": "uint256"
        },
        {
          "indexed": false,
          "internalType": "uint256",
          "name": "amount",
          "type": "uint256"
        }
      ],
      "name": "EmergencyWithdraw",
      "type": "event"
    },
    {
      "anonymous": false,
      "inputs": [
        {
          "indexed": true,
          "internalType": "address",
          "name": "previousOwner",
          "type": "address"
        },
        {
          "indexed": true,
          "internalType": "address",
          "name": "newOwner",
          "type": "address"
        }
      ],
      "name": "OwnershipTransferred",
      "type": "event"
    },
    {
      "anonymous": false,
      "inputs": [
        {
          "indexed": true,
          "internalType": "address",
          "name": "user",
          "type": "address"
        },
        {
          "indexed": true,
          "internalType": "address",
          "name": "newAddress",
          "type": "address"
        }
      ],
      "name": "SetDevAddress",
      "type": "event"
    },
    {
      "anonymous": false,
      "inputs": [
        {
          "indexed": true,
          "internalType": "address",
          "name": "user",
          "type": "address"
        },
        {
          "indexed": true,
          "internalType": "address",
          "name": "newAddress",
          "type": "address"
        }
      ],
      "name": "SetFeeAddress",
      "type": "event"
    },
    {
      "anonymous": false,
      "inputs": [
        {
          "indexed": true,
          "internalType": "address",
          "name": "user",
          "type": "address"
        },
        {
          "indexed": false,
          "internalType": "uint256",
          "name": "goosePerBlock",
          "type": "uint256"
        }
      ],
      "name": "UpdateEmissionRate",
      "type": "event"
    },
    {
      "anonymous": false,
      "inputs": [
        {
          "indexed": true,
          "internalType": "address",
          "name": "user",
          "type": "address"
        },
        {
          "indexed": true,
          "internalType": "uint256",
          "name": "pid",
          "type": "uint256"
        },
        {
          "indexed": false,
          "internalType": "uint256",
          "name": "amount",
          "type": "uint256"
        }
      ],
      "name": "Withdraw",
      "type": "event"
    },
    {
      "inputs": [],
      "name": "BONUS_MULTIPLIER",
      "outputs": [
        {
          "internalType": "uint256",
          "name": "",
          "type": "uint256"
        }
      ],
      "stateMutability": "view",
      "type": "function",
      "constant": true
    },
    {
      "inputs": [],
      "name": "devaddr",
      "outputs": [
        {
          "internalType": "address",
          "name": "",
          "type": "address"
        }
      ],
      "stateMutability": "view",
      "type": "function",
      "constant": true
    },
    {
      "inputs": [],
      "name": "feeAddress",
      "outputs": [
        {
          "internalType": "address",
          "name": "",
          "type": "address"
        }
      ],
      "stateMutability": "view",
      "type": "function",
      "constant": true
    },
    {
      "inputs": [],
      "name": "krill",
      "outputs": [
        {
          "internalType": "contract Krill",
          "name": "",
          "type": "address"
        }
      ],
      "stateMutability": "view",
      "type": "function",
      "constant": true
    },
    {
      "inputs": [],
      "name": "krillPerBlock",
      "outputs": [
        {
          "internalType": "uint256",
          "name": "",
          "type": "uint256"
        }
      ],
      "stateMutability": "view",
      "type": "function",
      "constant": true
    },
    {
      "inputs": [],
      "name": "owner",
      "outputs": [
        {
          "internalType": "address",
          "name": "",
          "type": "address"
        }
      ],
      "stateMutability": "view",
      "type": "function",
      "constant": true
    },
    {
      "inputs": [
        {
          "internalType": "contract IERC20",
          "name": "",
          "type": "address"
        }
      ],
      "name": "poolExistence",
      "outputs": [
        {
          "internalType": "bool",
          "name": "",
          "type": "bool"
        }
      ],
      "stateMutability": "view",
      "type": "function",
      "constant": true
    },
    {
      "inputs": [
        {
          "internalType": "uint256",
          "name": "",
          "type": "uint256"
        }
      ],
      "name": "poolInfo",
      "outputs": [
        {
          "internalType": "contract IERC20",
          "name": "lpToken",
          "type": "address"
        },
        {
          "internalType": "uint256",
          "name": "allocPoint",
          "type": "uint256"
        },
        {
          "internalType": "uint256",
          "name": "lastRewardBlock",
          "type": "uint256"
        },
        {
          "internalType": "uint256",
          "name": "accKrillPerShare",
          "type": "uint256"
        },
        {
          "internalType": "uint16",
          "name": "depositFeeBP",
          "type": "uint16"
        }
      ],
      "stateMutability": "view",
      "type": "function",
      "constant": true
    },
    {
      "inputs": [],
      "name": "renounceOwnership",
      "outputs": [],
      "stateMutability": "nonpayable",
      "type": "function"
    },
    {
      "inputs": [],
      "name": "startBlock",
      "outputs": [
        {
          "internalType": "uint256",
          "name": "",
          "type": "uint256"
        }
      ],
      "stateMutability": "view",
      "type": "function",
      "constant": true
    },
    {
      "inputs": [],
      "name": "totalAllocPoint",
      "outputs": [
        {
          "internalType": "uint256",
          "name": "",
          "type": "uint256"
        }
      ],
      "stateMutability": "view",
      "type": "function",
      "constant": true
    },
    {
      "inputs": [
        {
          "internalType": "address",
          "name": "newOwner",
          "type": "address"
        }
      ],
      "name": "transferOwnership",
      "outputs": [],
      "stateMutability": "nonpayable",
      "type": "function"
    },
    {
      "inputs": [
        {
          "internalType": "uint256",
          "name": "",
          "type": "uint256"
        },
        {
          "internalType": "address",
          "name": "",
          "type": "address"
        }
      ],
      "name": "userInfo",
      "outputs": [
        {
          "internalType": "uint256",
          "name": "amount",
          "type": "uint256"
        },
        {
          "internalType": "uint256",
          "name": "rewardDebt",
          "type": "uint256"
        }
      ],
      "stateMutability": "view",
      "type": "function",
      "constant": true
    },
    {
      "inputs": [],
      "name": "poolLength",
      "outputs": [
        {
          "internalType": "uint256",
          "name": "",
          "type": "uint256"
        }
      ],
      "stateMutability": "view",
      "type": "function",
      "constant": true
    },
    {
      "inputs": [
        {
          "internalType": "uint256",
          "name": "_allocPoint",
          "type": "uint256"
        },
        {
          "internalType": "contract IERC20",
          "name": "_lpToken",
          "type": "address"
        },
        {
          "internalType": "uint16",
          "name": "_depositFeeBP",
          "type": "uint16"
        },
        {
          "internalType": "bool",
          "name": "_withUpdate",
          "type": "bool"
        }
      ],
      "name": "add",
      "outputs": [],
      "stateMutability": "nonpayable",
      "type": "function"
    },
    {
      "inputs": [
        {
          "internalType": "uint256",
          "name": "_pid",
          "type": "uint256"
        },
        {
          "internalType": "uint256",
          "name": "_allocPoint",
          "type": "uint256"
        },
        {
          "internalType": "uint16",
          "name": "_depositFeeBP",
          "type": "uint16"
        },
        {
          "internalType": "bool",
          "name": "_withUpdate",
          "type": "bool"
        }
      ],
      "name": "set",
      "outputs": [],
      "stateMutability": "nonpayable",
      "type": "function"
    },
    {
      "inputs": [
        {
          "internalType": "uint256",
          "name": "_from",
          "type": "uint256"
        },
        {
          "internalType": "uint256",
          "name": "_to",
          "type": "uint256"
        }
      ],
      "name": "getMultiplier",
      "outputs": [
        {
          "internalType": "uint256",
          "name": "",
          "type": "uint256"
        }
      ],
      "stateMutability": "view",
      "type": "function",
      "constant": true
    },
    {
      "inputs": [
        {
          "internalType": "uint256",
          "name": "_pid",
          "type": "uint256"
        },
        {
          "internalType": "address",
          "name": "_user",
          "type": "address"
        }
      ],
      "name": "pendingKrill",
      "outputs": [
        {
          "internalType": "uint256",
          "name": "",
          "type": "uint256"
        }
      ],
      "stateMutability": "view",
      "type": "function",
      "constant": true
    },
    {
      "inputs": [],
      "name": "massUpdatePools",
      "outputs": [],
      "stateMutability": "nonpayable",
      "type": "function"
    },
    {
      "inputs": [
        {
          "internalType": "uint256",
          "name": "_pid",
          "type": "uint256"
        }
      ],
      "name": "updatePool",
      "outputs": [],
      "stateMutability": "nonpayable",
      "type": "function"
    },
    {
      "inputs": [
        {
          "internalType": "uint256",
          "name": "_pid",
          "type": "uint256"
        },
        {
          "internalType": "uint256",
          "name": "_amount",
          "type": "uint256"
        }
      ],
      "name": "deposit",
      "outputs": [],
      "stateMutability": "nonpayable",
      "type": "function"
    },
    {
      "inputs": [
        {
          "internalType": "uint256",
          "name": "_pid",
          "type": "uint256"
        },
        {
          "internalType": "uint256",
          "name": "_amount",
          "type": "uint256"
        }
      ],
      "name": "withdraw",
      "outputs": [],
      "stateMutability": "nonpayable",
      "type": "function"
    },
    {
      "inputs": [
        {
          "internalType": "uint256",
          "name": "_pid",
          "type": "uint256"
        }
      ],
      "name": "emergencyWithdraw",
      "outputs": [],
      "stateMutability": "nonpayable",
      "type": "function"
    },
    {
      "inputs": [
        {
          "internalType": "address",
          "name": "_devaddr",
          "type": "address"
        }
      ],
      "name": "dev",
      "outputs": [],
      "stateMutability": "nonpayable",
      "type": "function"
    },
    {
      "inputs": [
        {
          "internalType": "address",
          "name": "_feeAddress",
          "type": "address"
        }
      ],
      "name": "setFeeAddress",
      "outputs": [],
      "stateMutability": "nonpayable",
      "type": "function"
    },
    {
      "inputs": [
        {
          "internalType": "uint256",
          "name": "_krillPerBlock",
          "type": "uint256"
        }
      ],
      "name": "updateEmissionRate",
      "outputs": [],
      "stateMutability": "nonpayable",
      "type": "function"
    },
    {
      "inputs": [
        {
          "internalType": "uint256",
          "name": "_startBlock",
          "type": "uint256"
        }
      ],
      "name": "updateStartBlock",
      "outputs": [],
      "stateMutability": "nonpayable",
      "type": "function"
    }
  ],
  "bytecode": "0x608060405260006008553480156200001657600080fd5b50604051620031c9380380620031c9833981810160405260a08110156200003c57600080fd5b8101908080519060200190929190805190602001909291908051906020019092919080519060200190929190805190602001909291905050506000620000876200020860201b60201c565b9050806000806101000a81548173ffffffffffffffffffffffffffffffffffffffff021916908373ffffffffffffffffffffffffffffffffffffffff1602179055508073ffffffffffffffffffffffffffffffffffffffff16600073ffffffffffffffffffffffffffffffffffffffff167f8be0079c531659141344cd1fd0a4f28419497f9722a3daafe3b4186f6b6457e060405160405180910390a3506001808190555084600260006101000a81548173ffffffffffffffffffffffffffffffffffffffff021916908373ffffffffffffffffffffffffffffffffffffffff16021790555083600360006101000a81548173ffffffffffffffffffffffffffffffffffffffff021916908373ffffffffffffffffffffffffffffffffffffffff16021790555082600560006101000a81548173ffffffffffffffffffffffffffffffffffffffff021916908373ffffffffffffffffffffffffffffffffffffffff1602179055508160048190555080600981905550505050505062000210565b600033905090565b612fa980620002206000396000f3fe608060405234801561001057600080fd5b50600436106101a95760003560e01c806384e82a33116100f957806393f1a40b11610097578063d963842211610071578063d9638422146106c3578063e2bbb15814610715578063f2fde38b1461074d578063fac2b9ba14610791576101a9565b806393f1a40b146105cc578063cbd258b514610635578063d49e77cd1461068f576101a9565b80638d88a90e116100d35780638d88a90e146104a65780638da5cb5b146104ea5780638dbb1e3a1461051e5780638e8205bb1461056a576101a9565b806384e82a33146103dc5780638705fcd4146104445780638aa2855014610488576101a9565b8063441a3e70116101665780635312ea8e116101405780635312ea8e1461037c57806353b24d69146103aa578063630b5ba1146103c8578063715018a6146103d2576101a9565b8063441a3e70146102f857806348cd4cb11461033057806351eb05a61461034e576101a9565b8063081e3eda146101ae5780630ba84cd2146101cc5780631526fe27146101fa57806317caf6f11461027257806337ea93481461029057806341275358146102c4575b600080fd5b6101b66107bf565b6040518082815260200191505060405180910390f35b6101f8600480360360208110156101e257600080fd5b81019080803590602001909291905050506107cc565b005b6102266004803603602081101561021057600080fd5b81019080803590602001909291905050506108db565b604051808673ffffffffffffffffffffffffffffffffffffffff1681526020018581526020018481526020018381526020018261ffff1681526020019550505050505060405180910390f35b61027a61094f565b6040518082815260200191505060405180910390f35b610298610955565b604051808273ffffffffffffffffffffffffffffffffffffffff16815260200191505060405180910390f35b6102cc61097b565b604051808273ffffffffffffffffffffffffffffffffffffffff16815260200191505060405180910390f35b61032e6004803603604081101561030e57600080fd5b8101908080359060200190929190803590602001909291905050506109a1565b005b610338610c87565b6040518082815260200191505060405180910390f35b61037a6004803603602081101561036457600080fd5b8101908080359060200190929190505050610c8d565b005b6103a86004803603602081101561039257600080fd5b8101908080359060200190929190505050610fe8565b005b6103b26111a4565b6040518082815260200191505060405180910390f35b6103d06111aa565b005b6103da6111d7565b005b610442600480360360808110156103f257600080fd5b8101908080359060200190929190803573ffffffffffffffffffffffffffffffffffffffff169060200190929190803561ffff169060200190929190803515159060200190929190505050611344565b005b6104866004803603602081101561045a57600080fd5b81019080803573ffffffffffffffffffffffffffffffffffffffff1690602001909291905050506116b1565b005b610490611812565b6040518082815260200191505060405180910390f35b6104e8600480360360208110156104bc57600080fd5b81019080803573ffffffffffffffffffffffffffffffffffffffff169060200190929190505050611817565b005b6104f2611978565b604051808273ffffffffffffffffffffffffffffffffffffffff16815260200191505060405180910390f35b6105546004803603604081101561053457600080fd5b8101908080359060200190929190803590602001909291905050506119a1565b6040518082815260200191505060405180910390f35b6105b66004803603604081101561058057600080fd5b8101908080359060200190929190803573ffffffffffffffffffffffffffffffffffffffff1690602001909291905050506119d1565b6040518082815260200191505060405180910390f35b610618600480360360408110156105e257600080fd5b8101908080359060200190929190803573ffffffffffffffffffffffffffffffffffffffff169060200190929190505050611c17565b604051808381526020018281526020019250505060405180910390f35b6106776004803603602081101561064b57600080fd5b81019080803573ffffffffffffffffffffffffffffffffffffffff169060200190929190505050611c48565b60405180821515815260200191505060405180910390f35b610697611c68565b604051808273ffffffffffffffffffffffffffffffffffffffff16815260200191505060405180910390f35b610713600480360360808110156106d957600080fd5b810190808035906020019092919080359060200190929190803561ffff169060200190929190803515159060200190929190505050611c8e565b005b61074b6004803603604081101561072b57600080fd5b810190808035906020019092919080359060200190929190505050611e58565b005b61078f6004803603602081101561076357600080fd5b81019080803573ffffffffffffffffffffffffffffffffffffffff1690602001909291905050506121dd565b005b6107bd600480360360208110156107a757600080fd5b81019080803590602001909291905050506123cf565b005b6000600680549050905090565b6107d4612488565b73ffffffffffffffffffffffffffffffffffffffff166107f2611978565b73ffffffffffffffffffffffffffffffffffffffff161461087b576040517f08c379a00000000000000000000000000000000000000000000000000000000081526004018080602001828103825260208152602001807f4f776e61626c653a2063616c6c6572206973206e6f7420746865206f776e657281525060200191505060405180910390fd5b6108836111aa565b806004819055503373ffffffffffffffffffffffffffffffffffffffff167fe2492e003bbe8afa53088b406f0c1cb5d9e280370fc72a74cf116ffd343c4053826040518082815260200191505060405180910390a250565b600681815481106108eb57600080fd5b90600052602060002090600502016000915090508060000160009054906101000a900473ffffffffffffffffffffffffffffffffffffffff16908060010154908060020154908060030154908060040160009054906101000a900461ffff16905085565b60085481565b600260009054906101000a900473ffffffffffffffffffffffffffffffffffffffff1681565b600560009054906101000a900473ffffffffffffffffffffffffffffffffffffffff1681565b60026001541415610a1a576040517f08c379a000000000000000000000000000000000000000000000000000000000815260040180806020018281038252601f8152602001807f5265656e7472616e637947756172643a207265656e7472616e742063616c6c0081525060200191505060405180910390fd5b6002600181905550600060068381548110610a3157fe5b9060005260206000209060050201905060006007600085815260200190815260200160002060003373ffffffffffffffffffffffffffffffffffffffff1673ffffffffffffffffffffffffffffffffffffffff16815260200190815260200160002090508281600001541015610b0f576040517f08c379a00000000000000000000000000000000000000000000000000000000081526004018080602001828103825260128152602001807f77697468647261773a206e6f7420676f6f64000000000000000000000000000081525060200191505060405180910390fd5b610b1884610c8d565b6000610b628260010154610b5464e8d4a51000610b468760030154876000015461249090919063ffffffff16565b61251690919063ffffffff16565b61259f90919063ffffffff16565b90506000811115610b7857610b773382612622565b5b6000841115610bf057610b9884836000015461259f90919063ffffffff16565b8260000181905550610bef33858560000160009054906101000a900473ffffffffffffffffffffffffffffffffffffffff1673ffffffffffffffffffffffffffffffffffffffff166128f69092919063ffffffff16565b5b610c2264e8d4a51000610c148560030154856000015461249090919063ffffffff16565b61251690919063ffffffff16565b8260010181905550843373ffffffffffffffffffffffffffffffffffffffff167ff279e6a1f5e320cca91135676d9cb6e44ca8a08c0b88342bcdb1144f6511b568866040518082815260200191505060405180910390a3505050600180819055505050565b60095481565b600060068281548110610c9c57fe5b9060005260206000209060050201905080600201544311610cbd5750610fe5565b60008160000160009054906101000a900473ffffffffffffffffffffffffffffffffffffffff1673ffffffffffffffffffffffffffffffffffffffff166370a08231306040518263ffffffff1660e01b8152600401808273ffffffffffffffffffffffffffffffffffffffff16815260200191505060206040518083038186803b158015610d4a57600080fd5b505afa158015610d5e573d6000803e3d6000fd5b505050506040513d6020811015610d7457600080fd5b810190808051906020019092919050505090506000811480610d9a575060008260010154145b15610daf574382600201819055505050610fe5565b6000610dbf8360020154436119a1565b90506000610e02600854610df48660010154610de66004548761249090919063ffffffff16565b61249090919063ffffffff16565b61251690919063ffffffff16565b9050600260009054906101000a900473ffffffffffffffffffffffffffffffffffffffff1673ffffffffffffffffffffffffffffffffffffffff166340c10f19600360009054906101000a900473ffffffffffffffffffffffffffffffffffffffff16610e79600a8561251690919063ffffffff16565b6040518363ffffffff1660e01b8152600401808373ffffffffffffffffffffffffffffffffffffffff16815260200182815260200192505050600060405180830381600087803b158015610ecc57600080fd5b505af1158015610ee0573d6000803e3d6000fd5b50505050600260009054906101000a900473ffffffffffffffffffffffffffffffffffffffff1673ffffffffffffffffffffffffffffffffffffffff166340c10f1930836040518363ffffffff1660e01b8152600401808373ffffffffffffffffffffffffffffffffffffffff16815260200182815260200192505050600060405180830381600087803b158015610f7757600080fd5b505af1158015610f8b573d6000803e3d6000fd5b50505050610fcf610fbc84610fae64e8d4a510008561249090919063ffffffff16565b61251690919063ffffffff16565b856003015461299890919063ffffffff16565b8460030181905550438460020181905550505050505b50565b60026001541415611061576040517f08c379a000000000000000000000000000000000000000000000000000000000815260040180806020018281038252601f8152602001807f5265656e7472616e637947756172643a207265656e7472616e742063616c6c0081525060200191505060405180910390fd5b600260018190555060006006828154811061107857fe5b9060005260206000209060050201905060006007600084815260200190815260200160002060003373ffffffffffffffffffffffffffffffffffffffff1673ffffffffffffffffffffffffffffffffffffffff1681526020019081526020016000209050600081600001549050600082600001819055506000826001018190555061114833828560000160009054906101000a900473ffffffffffffffffffffffffffffffffffffffff1673ffffffffffffffffffffffffffffffffffffffff166128f69092919063ffffffff16565b833373ffffffffffffffffffffffffffffffffffffffff167fbb757047c2b5f3974fe26b7c10f732e7bce710b0952a71082702781e62ae0595836040518082815260200191505060405180910390a35050506001808190555050565b60045481565b6000600680549050905060005b818110156111d3576111c881610c8d565b8060010190506111b7565b5050565b6111df612488565b73ffffffffffffffffffffffffffffffffffffffff166111fd611978565b73ffffffffffffffffffffffffffffffffffffffff1614611286576040517f08c379a00000000000000000000000000000000000000000000000000000000081526004018080602001828103825260208152602001807f4f776e61626c653a2063616c6c6572206973206e6f7420746865206f776e657281525060200191505060405180910390fd5b600073ffffffffffffffffffffffffffffffffffffffff1660008054906101000a900473ffffffffffffffffffffffffffffffffffffffff1673ffffffffffffffffffffffffffffffffffffffff167f8be0079c531659141344cd1fd0a4f28419497f9722a3daafe3b4186f6b6457e060405160405180910390a360008060006101000a81548173ffffffffffffffffffffffffffffffffffffffff021916908373ffffffffffffffffffffffffffffffffffffffff160217905550565b61134c612488565b73ffffffffffffffffffffffffffffffffffffffff1661136a611978565b73ffffffffffffffffffffffffffffffffffffffff16146113f3576040517f08c379a00000000000000000000000000000000000000000000000000000000081526004018080602001828103825260208152602001807f4f776e61626c653a2063616c6c6572206973206e6f7420746865206f776e657281525060200191505060405180910390fd5b8260001515600a60008373ffffffffffffffffffffffffffffffffffffffff1673ffffffffffffffffffffffffffffffffffffffff16815260200190815260200160002060009054906101000a900460ff161515146114ba576040517f08c379a00000000000000000000000000000000000000000000000000000000081526004018080602001828103825260198152602001807f6e6f6e4475706c6963617465643a206475706c6963617465640000000000000081525060200191505060405180910390fd5b6127108361ffff161115611519576040517f08c379a0000000000000000000000000000000000000000000000000000000008152600401808060200182810382526025815260200180612e716025913960400191505060405180910390fd5b8115611528576115276111aa565b5b6000600954431161153b5760095461153d565b435b90506115548660085461299890919063ffffffff16565b6008819055506001600a60008773ffffffffffffffffffffffffffffffffffffffff1673ffffffffffffffffffffffffffffffffffffffff16815260200190815260200160002060006101000a81548160ff02191690831515021790555060066040518060a001604052808773ffffffffffffffffffffffffffffffffffffffff168152602001888152602001838152602001600081526020018661ffff16815250908060018154018082558091505060019003906000526020600020906005020160009091909190915060008201518160000160006101000a81548173ffffffffffffffffffffffffffffffffffffffff021916908373ffffffffffffffffffffffffffffffffffffffff16021790555060208201518160010155604082015181600201556060820151816003015560808201518160040160006101000a81548161ffff021916908361ffff1602179055505050505050505050565b600560009054906101000a900473ffffffffffffffffffffffffffffffffffffffff1673ffffffffffffffffffffffffffffffffffffffff163373ffffffffffffffffffffffffffffffffffffffff1614611774576040517f08c379a00000000000000000000000000000000000000000000000000000000081526004018080602001828103825260188152602001807f736574466565416464726573733a20464f5242494444454e000000000000000081525060200191505060405180910390fd5b80600560006101000a81548173ffffffffffffffffffffffffffffffffffffffff021916908373ffffffffffffffffffffffffffffffffffffffff1602179055508073ffffffffffffffffffffffffffffffffffffffff163373ffffffffffffffffffffffffffffffffffffffff167fd44190acf9d04bdb5d3a1aafff7e6dee8b40b93dfb8c5d3f0eea4b9f4539c3f760405160405180910390a350565b600181565b600360009054906101000a900473ffffffffffffffffffffffffffffffffffffffff1673ffffffffffffffffffffffffffffffffffffffff163373ffffffffffffffffffffffffffffffffffffffff16146118da576040517f08c379a00000000000000000000000000000000000000000000000000000000081526004018080602001828103825260098152602001807f6465763a207775743f000000000000000000000000000000000000000000000081525060200191505060405180910390fd5b80600360006101000a81548173ffffffffffffffffffffffffffffffffffffffff021916908373ffffffffffffffffffffffffffffffffffffffff1602179055508073ffffffffffffffffffffffffffffffffffffffff163373ffffffffffffffffffffffffffffffffffffffff167f618c54559e94f1499a808aad71ee8729f8e74e8c48e979616328ce493a1a52e760405160405180910390a350565b60008060009054906101000a900473ffffffffffffffffffffffffffffffffffffffff16905090565b60006119c960016119bb858561259f90919063ffffffff16565b61249090919063ffffffff16565b905092915050565b600080600684815481106119e157fe5b9060005260206000209060050201905060006007600086815260200190815260200160002060008573ffffffffffffffffffffffffffffffffffffffff1673ffffffffffffffffffffffffffffffffffffffff168152602001908152602001600020905060008260030154905060008360000160009054906101000a900473ffffffffffffffffffffffffffffffffffffffff1673ffffffffffffffffffffffffffffffffffffffff166370a08231306040518263ffffffff1660e01b8152600401808273ffffffffffffffffffffffffffffffffffffffff16815260200191505060206040518083038186803b158015611adb57600080fd5b505afa158015611aef573d6000803e3d6000fd5b505050506040513d6020811015611b0557600080fd5b81019080805190602001909291905050509050836002015443118015611b2c575060008114155b15611bc7576000611b418560020154436119a1565b90506000611b84600854611b768860010154611b686004548761249090919063ffffffff16565b61249090919063ffffffff16565b61251690919063ffffffff16565b9050611bc2611bb384611ba564e8d4a510008561249090919063ffffffff16565b61251690919063ffffffff16565b8561299890919063ffffffff16565b935050505b611c0b8360010154611bfd64e8d4a51000611bef86886000015461249090919063ffffffff16565b61251690919063ffffffff16565b61259f90919063ffffffff16565b94505050505092915050565b6007602052816000526040600020602052806000526040600020600091509150508060000154908060010154905082565b600a6020528060005260406000206000915054906101000a900460ff1681565b600360009054906101000a900473ffffffffffffffffffffffffffffffffffffffff1681565b611c96612488565b73ffffffffffffffffffffffffffffffffffffffff16611cb4611978565b73ffffffffffffffffffffffffffffffffffffffff1614611d3d576040517f08c379a00000000000000000000000000000000000000000000000000000000081526004018080602001828103825260208152602001807f4f776e61626c653a2063616c6c6572206973206e6f7420746865206f776e657281525060200191505060405180910390fd5b6127108261ffff161115611d9c576040517f08c379a0000000000000000000000000000000000000000000000000000000008152600401808060200182810382526025815260200180612f256025913960400191505060405180910390fd5b8015611dab57611daa6111aa565b5b611df083611de260068781548110611dbf57fe5b90600052602060002090600502016001015460085461259f90919063ffffffff16565b61299890919063ffffffff16565b6008819055508260068581548110611e0457fe5b9060005260206000209060050201600101819055508160068581548110611e2757fe5b906000526020600020906005020160040160006101000a81548161ffff021916908361ffff16021790555050505050565b60026001541415611ed1576040517f08c379a000000000000000000000000000000000000000000000000000000000815260040180806020018281038252601f8152602001807f5265656e7472616e637947756172643a207265656e7472616e742063616c6c0081525060200191505060405180910390fd5b6002600181905550600060068381548110611ee857fe5b9060005260206000209060050201905060006007600085815260200190815260200160002060003373ffffffffffffffffffffffffffffffffffffffff1673ffffffffffffffffffffffffffffffffffffffff1681526020019081526020016000209050611f5584610c8d565b600081600001541115611fc4576000611fac8260010154611f9e64e8d4a51000611f908760030154876000015461249090919063ffffffff16565b61251690919063ffffffff16565b61259f90919063ffffffff16565b90506000811115611fc257611fc13382612622565b5b505b60008311156121475761201e3330858560000160009054906101000a900473ffffffffffffffffffffffffffffffffffffffff1673ffffffffffffffffffffffffffffffffffffffff16612a20909392919063ffffffff16565b60008260040160009054906101000a900461ffff1661ffff16111561212657600061207c61271061206e8560040160009054906101000a900461ffff1661ffff168761249090919063ffffffff16565b61251690919063ffffffff16565b90506120ef600560009054906101000a900473ffffffffffffffffffffffffffffffffffffffff16828560000160009054906101000a900473ffffffffffffffffffffffffffffffffffffffff1673ffffffffffffffffffffffffffffffffffffffff166128f69092919063ffffffff16565b6121188161210a86856000015461299890919063ffffffff16565b61259f90919063ffffffff16565b826000018190555050612146565b61213d83826000015461299890919063ffffffff16565b81600001819055505b5b61217964e8d4a5100061216b8460030154846000015461249090919063ffffffff16565b61251690919063ffffffff16565b8160010181905550833373ffffffffffffffffffffffffffffffffffffffff167f90890809c654f11d6e72a28fa60149770a0d11ec6c92319d6ceb2bb0a4ea1a15856040518082815260200191505060405180910390a35050600180819055505050565b6121e5612488565b73ffffffffffffffffffffffffffffffffffffffff16612203611978565b73ffffffffffffffffffffffffffffffffffffffff161461228c576040517f08c379a00000000000000000000000000000000000000000000000000000000081526004018080602001828103825260208152602001807f4f776e61626c653a2063616c6c6572206973206e6f7420746865206f776e657281525060200191505060405180910390fd5b600073ffffffffffffffffffffffffffffffffffffffff168173ffffffffffffffffffffffffffffffffffffffff161415612312576040517f08c379a0000000000000000000000000000000000000000000000000000000008152600401808060200182810382526026815260200180612e966026913960400191505060405180910390fd5b8073ffffffffffffffffffffffffffffffffffffffff1660008054906101000a900473ffffffffffffffffffffffffffffffffffffffff1673ffffffffffffffffffffffffffffffffffffffff167f8be0079c531659141344cd1fd0a4f28419497f9722a3daafe3b4186f6b6457e060405160405180910390a3806000806101000a81548173ffffffffffffffffffffffffffffffffffffffff021916908373ffffffffffffffffffffffffffffffffffffffff16021790555050565b6123d7612488565b73ffffffffffffffffffffffffffffffffffffffff166123f5611978565b73ffffffffffffffffffffffffffffffffffffffff161461247e576040517f08c379a00000000000000000000000000000000000000000000000000000000081526004018080602001828103825260208152602001807f4f776e61626c653a2063616c6c6572206973206e6f7420746865206f776e657281525060200191505060405180910390fd5b8060098190555050565b600033905090565b6000808314156124a35760009050612510565b60008284029050828482816124b457fe5b041461250b576040517f08c379a0000000000000000000000000000000000000000000000000000000008152600401808060200182810382526021815260200180612f046021913960400191505060405180910390fd5b809150505b92915050565b600080821161258d576040517f08c379a000000000000000000000000000000000000000000000000000000000815260040180806020018281038252601a8152602001807f536166654d6174683a206469766973696f6e206279207a65726f00000000000081525060200191505060405180910390fd5b81838161259657fe5b04905092915050565b600082821115612617576040517f08c379a000000000000000000000000000000000000000000000000000000000815260040180806020018281038252601e8152602001807f536166654d6174683a207375627472616374696f6e206f766572666c6f77000081525060200191505060405180910390fd5b818303905092915050565b6000600260009054906101000a900473ffffffffffffffffffffffffffffffffffffffff1673ffffffffffffffffffffffffffffffffffffffff166370a08231306040518263ffffffff1660e01b8152600401808273ffffffffffffffffffffffffffffffffffffffff16815260200191505060206040518083038186803b1580156126ad57600080fd5b505afa1580156126c1573d6000803e3d6000fd5b505050506040513d60208110156126d757600080fd5b810190808051906020019092919050505090506000818311156127c957600260009054906101000a900473ffffffffffffffffffffffffffffffffffffffff1673ffffffffffffffffffffffffffffffffffffffff1663a9059cbb85846040518363ffffffff1660e01b8152600401808373ffffffffffffffffffffffffffffffffffffffff16815260200182815260200192505050602060405180830381600087803b15801561278757600080fd5b505af115801561279b573d6000803e3d6000fd5b505050506040513d60208110156127b157600080fd5b8101908080519060200190929190505050905061289a565b600260009054906101000a900473ffffffffffffffffffffffffffffffffffffffff1673ffffffffffffffffffffffffffffffffffffffff1663a9059cbb85856040518363ffffffff1660e01b8152600401808373ffffffffffffffffffffffffffffffffffffffff16815260200182815260200192505050602060405180830381600087803b15801561285c57600080fd5b505af1158015612870573d6000803e3d6000fd5b505050506040513d602081101561288657600080fd5b810190808051906020019092919050505090505b806128f0576040517f08c379a0000000000000000000000000000000000000000000000000000000008152600401808060200182810382526022815260200180612ebc6022913960400191505060405180910390fd5b50505050565b6129938363a9059cbb60e01b8484604051602401808373ffffffffffffffffffffffffffffffffffffffff16815260200182815260200192505050604051602081830303815290604052907bffffffffffffffffffffffffffffffffffffffffffffffffffffffff19166020820180517bffffffffffffffffffffffffffffffffffffffffffffffffffffffff8381831617835250505050612ae1565b505050565b600080828401905083811015612a16576040517f08c379a000000000000000000000000000000000000000000000000000000000815260040180806020018281038252601b8152602001807f536166654d6174683a206164646974696f6e206f766572666c6f77000000000081525060200191505060405180910390fd5b8091505092915050565b612adb846323b872dd60e01b858585604051602401808473ffffffffffffffffffffffffffffffffffffffff1681526020018373ffffffffffffffffffffffffffffffffffffffff1681526020018281526020019350505050604051602081830303815290604052907bffffffffffffffffffffffffffffffffffffffffffffffffffffffff19166020820180517bffffffffffffffffffffffffffffffffffffffffffffffffffffffff8381831617835250505050612ae1565b50505050565b6060612b43826040518060400160405280602081526020017f5361666545524332303a206c6f772d6c6576656c2063616c6c206661696c65648152508573ffffffffffffffffffffffffffffffffffffffff16612bd09092919063ffffffff16565b9050600081511115612bcb57808060200190516020811015612b6457600080fd5b8101908080519060200190929190505050612bca576040517f08c379a000000000000000000000000000000000000000000000000000000000815260040180806020018281038252602a815260200180612f4a602a913960400191505060405180910390fd5b5b505050565b6060612bdf8484600085612be8565b90509392505050565b606082471015612c43576040517f08c379a0000000000000000000000000000000000000000000000000000000008152600401808060200182810382526026815260200180612ede6026913960400191505060405180910390fd5b612c4c85612d91565b612cbe576040517f08c379a000000000000000000000000000000000000000000000000000000000815260040180806020018281038252601d8152602001807f416464726573733a2063616c6c20746f206e6f6e2d636f6e747261637400000081525060200191505060405180910390fd5b600060608673ffffffffffffffffffffffffffffffffffffffff1685876040518082805190602001908083835b60208310612d0e5780518252602082019150602081019050602083039250612ceb565b6001836020036101000a03801982511681845116808217855250505050505090500191505060006040518083038185875af1925050503d8060008114612d70576040519150601f19603f3d011682016040523d82523d6000602084013e612d75565b606091505b5091509150612d85828286612da4565b92505050949350505050565b600080823b905060008111915050919050565b60608315612db457829050612e69565b600083511115612dc75782518084602001fd5b816040517f08c379a00000000000000000000000000000000000000000000000000000000081526004018080602001828103825283818151815260200191508051906020019080838360005b83811015612e2e578082015181840152602081019050612e13565b50505050905090810190601f168015612e5b5780820380516001836020036101000a031916815260200191505b509250505060405180910390fd5b939250505056fe6164643a20696e76616c6964206465706f7369742066656520626173697320706f696e74734f776e61626c653a206e6577206f776e657220697320746865207a65726f2061646472657373736166654b72696c6c5472616e736665723a207472616e73666572206661696c6564416464726573733a20696e73756666696369656e742062616c616e636520666f722063616c6c536166654d6174683a206d756c7469706c69636174696f6e206f766572666c6f777365743a20696e76616c6964206465706f7369742066656520626173697320706f696e74735361666545524332303a204552433230206f7065726174696f6e20646964206e6f742073756363656564a2646970667358221220fe5b2766f0613512ba873f10c4e729e9b1c37874c6056aec015a2d09ec50f6dd64736f6c63430007040033",
  "immutableReferences": {},
  "source": "// File: @openzeppelin/contracts/math/SafeMath.sol\n\npragma solidity >=0.6.0 <0.8.0;\n\n/**\n * @dev Wrappers over Solidity's arithmetic operations with added overflow\n * checks.\n *\n * Arithmetic operations in Solidity wrap on overflow. This can easily result\n * in bugs, because programmers usually assume that an overflow raises an\n * error, which is the standard behavior in high level programming languages.\n * `SafeMath` restores this intuition by reverting the transaction when an\n * operation overflows.\n *\n * Using this library instead of the unchecked operations eliminates an entire\n * class of bugs, so it's recommended to use it always.\n */\nlibrary SafeMath {\n    /**\n     * @dev Returns the addition of two unsigned integers, with an overflow flag.\n     *\n     * _Available since v3.4._\n     */\n    function tryAdd(uint256 a, uint256 b)\n        internal\n        pure\n        returns (bool, uint256)\n    {\n        uint256 c = a + b;\n        if (c < a) return (false, 0);\n        return (true, c);\n    }\n\n    /**\n     * @dev Returns the substraction of two unsigned integers, with an overflow flag.\n     *\n     * _Available since v3.4._\n     */\n    function trySub(uint256 a, uint256 b)\n        internal\n        pure\n        returns (bool, uint256)\n    {\n        if (b > a) return (false, 0);\n        return (true, a - b);\n    }\n\n    /**\n     * @dev Returns the multiplication of two unsigned integers, with an overflow flag.\n     *\n     * _Available since v3.4._\n     */\n    function tryMul(uint256 a, uint256 b)\n        internal\n        pure\n        returns (bool, uint256)\n    {\n        // Gas optimization: this is cheaper than requiring 'a' not being zero, but the\n        // benefit is lost if 'b' is also tested.\n        // See: https://github.com/OpenZeppelin/openzeppelin-contracts/pull/522\n        if (a == 0) return (true, 0);\n        uint256 c = a * b;\n        if (c / a != b) return (false, 0);\n        return (true, c);\n    }\n\n    /**\n     * @dev Returns the division of two unsigned integers, with a division by zero flag.\n     *\n     * _Available since v3.4._\n     */\n    function tryDiv(uint256 a, uint256 b)\n        internal\n        pure\n        returns (bool, uint256)\n    {\n        if (b == 0) return (false, 0);\n        return (true, a / b);\n    }\n\n    /**\n     * @dev Returns the remainder of dividing two unsigned integers, with a division by zero flag.\n     *\n     * _Available since v3.4._\n     */\n    function tryMod(uint256 a, uint256 b)\n        internal\n        pure\n        returns (bool, uint256)\n    {\n        if (b == 0) return (false, 0);\n        return (true, a % b);\n    }\n\n    /**\n     * @dev Returns the addition of two unsigned integers, reverting on\n     * overflow.\n     *\n     * Counterpart to Solidity's `+` operator.\n     *\n     * Requirements:\n     *\n     * - Addition cannot overflow.\n     */\n    function add(uint256 a, uint256 b) internal pure returns (uint256) {\n        uint256 c = a + b;\n        require(c >= a, \"SafeMath: addition overflow\");\n        return c;\n    }\n\n    /**\n     * @dev Returns the subtraction of two unsigned integers, reverting on\n     * overflow (when the result is negative).\n     *\n     * Counterpart to Solidity's `-` operator.\n     *\n     * Requirements:\n     *\n     * - Subtraction cannot overflow.\n     */\n    function sub(uint256 a, uint256 b) internal pure returns (uint256) {\n        require(b <= a, \"SafeMath: subtraction overflow\");\n        return a - b;\n    }\n\n    /**\n     * @dev Returns the multiplication of two unsigned integers, reverting on\n     * overflow.\n     *\n     * Counterpart to Solidity's `*` operator.\n     *\n     * Requirements:\n     *\n     * - Multiplication cannot overflow.\n     */\n    function mul(uint256 a, uint256 b) internal pure returns (uint256) {\n        if (a == 0) return 0;\n        uint256 c = a * b;\n        require(c / a == b, \"SafeMath: multiplication overflow\");\n        return c;\n    }\n\n    /**\n     * @dev Returns the integer division of two unsigned integers, reverting on\n     * division by zero. The result is rounded towards zero.\n     *\n     * Counterpart to Solidity's `/` operator. Note: this function uses a\n     * `revert` opcode (which leaves remaining gas untouched) while Solidity\n     * uses an invalid opcode to revert (consuming all remaining gas).\n     *\n     * Requirements:\n     *\n     * - The divisor cannot be zero.\n     */\n    function div(uint256 a, uint256 b) internal pure returns (uint256) {\n        require(b > 0, \"SafeMath: division by zero\");\n        return a / b;\n    }\n\n    /**\n     * @dev Returns the remainder of dividing two unsigned integers. (unsigned integer modulo),\n     * reverting when dividing by zero.\n     *\n     * Counterpart to Solidity's `%` operator. This function uses a `revert`\n     * opcode (which leaves remaining gas untouched) while Solidity uses an\n     * invalid opcode to revert (consuming all remaining gas).\n     *\n     * Requirements:\n     *\n     * - The divisor cannot be zero.\n     */\n    function mod(uint256 a, uint256 b) internal pure returns (uint256) {\n        require(b > 0, \"SafeMath: modulo by zero\");\n        return a % b;\n    }\n\n    /**\n     * @dev Returns the subtraction of two unsigned integers, reverting with custom message on\n     * overflow (when the result is negative).\n     *\n     * CAUTION: This function is deprecated because it requires allocating memory for the error\n     * message unnecessarily. For custom revert reasons use {trySub}.\n     *\n     * Counterpart to Solidity's `-` operator.\n     *\n     * Requirements:\n     *\n     * - Subtraction cannot overflow.\n     */\n    function sub(\n        uint256 a,\n        uint256 b,\n        string memory errorMessage\n    ) internal pure returns (uint256) {\n        require(b <= a, errorMessage);\n        return a - b;\n    }\n\n    /**\n     * @dev Returns the integer division of two unsigned integers, reverting with custom message on\n     * division by zero. The result is rounded towards zero.\n     *\n     * CAUTION: This function is deprecated because it requires allocating memory for the error\n     * message unnecessarily. For custom revert reasons use {tryDiv}.\n     *\n     * Counterpart to Solidity's `/` operator. Note: this function uses a\n     * `revert` opcode (which leaves remaining gas untouched) while Solidity\n     * uses an invalid opcode to revert (consuming all remaining gas).\n     *\n     * Requirements:\n     *\n     * - The divisor cannot be zero.\n     */\n    function div(\n        uint256 a,\n        uint256 b,\n        string memory errorMessage\n    ) internal pure returns (uint256) {\n        require(b > 0, errorMessage);\n        return a / b;\n    }\n\n    /**\n     * @dev Returns the remainder of dividing two unsigned integers. (unsigned integer modulo),\n     * reverting with custom message when dividing by zero.\n     *\n     * CAUTION: This function is deprecated because it requires allocating memory for the error\n     * message unnecessarily. For custom revert reasons use {tryMod}.\n     *\n     * Counterpart to Solidity's `%` operator. This function uses a `revert`\n     * opcode (which leaves remaining gas untouched) while Solidity uses an\n     * invalid opcode to revert (consuming all remaining gas).\n     *\n     * Requirements:\n     *\n     * - The divisor cannot be zero.\n     */\n    function mod(\n        uint256 a,\n        uint256 b,\n        string memory errorMessage\n    ) internal pure returns (uint256) {\n        require(b > 0, errorMessage);\n        return a % b;\n    }\n}\n\n// File: @openzeppelin/contracts/token/ERC20/IERC20.sol\n\npragma solidity >=0.6.0 <0.8.0;\n\n/**\n * @dev Interface of the ERC20 standard as defined in the EIP.\n */\ninterface IERC20 {\n    /**\n     * @dev Returns the amount of tokens in existence.\n     */\n    function totalSupply() external view returns (uint256);\n\n    /**\n     * @dev Returns the amount of tokens owned by `account`.\n     */\n    function balanceOf(address account) external view returns (uint256);\n\n    /**\n     * @dev Moves `amount` tokens from the caller's account to `recipient`.\n     *\n     * Returns a boolean value indicating whether the operation succeeded.\n     *\n     * Emits a {Transfer} event.\n     */\n    function transfer(address recipient, uint256 amount)\n        external\n        returns (bool);\n\n    /**\n     * @dev Returns the remaining number of tokens that `spender` will be\n     * allowed to spend on behalf of `owner` through {transferFrom}. This is\n     * zero by default.\n     *\n     * This value changes when {approve} or {transferFrom} are called.\n     */\n    function allowance(address owner, address spender)\n        external\n        view\n        returns (uint256);\n\n    /**\n     * @dev Sets `amount` as the allowance of `spender` over the caller's tokens.\n     *\n     * Returns a boolean value indicating whether the operation succeeded.\n     *\n     * IMPORTANT: Beware that changing an allowance with this method brings the risk\n     * that someone may use both the old and the new allowance by unfortunate\n     * transaction ordering. One possible solution to mitigate this race\n     * condition is to first reduce the spender's allowance to 0 and set the\n     * desired value afterwards:\n     * https://github.com/ethereum/EIPs/issues/20#issuecomment-263524729\n     *\n     * Emits an {Approval} event.\n     */\n    function approve(address spender, uint256 amount) external returns (bool);\n\n    /**\n     * @dev Moves `amount` tokens from `sender` to `recipient` using the\n     * allowance mechanism. `amount` is then deducted from the caller's\n     * allowance.\n     *\n     * Returns a boolean value indicating whether the operation succeeded.\n     *\n     * Emits a {Transfer} event.\n     */\n    function transferFrom(\n        address sender,\n        address recipient,\n        uint256 amount\n    ) external returns (bool);\n\n    /**\n     * @dev Emitted when `value` tokens are moved from one account (`from`) to\n     * another (`to`).\n     *\n     * Note that `value` may be zero.\n     */\n    event Transfer(address indexed from, address indexed to, uint256 value);\n\n    /**\n     * @dev Emitted when the allowance of a `spender` for an `owner` is set by\n     * a call to {approve}. `value` is the new allowance.\n     */\n    event Approval(\n        address indexed owner,\n        address indexed spender,\n        uint256 value\n    );\n}\n\n// File: @openzeppelin/contracts/utils/Address.sol\n\npragma solidity >=0.6.2 <0.8.0;\n\n/**\n * @dev Collection of functions related to the address type\n */\nlibrary Address {\n    /**\n     * @dev Returns true if `account` is a contract.\n     *\n     * [IMPORTANT]\n     * ====\n     * It is unsafe to assume that an address for which this function returns\n     * false is an externally-owned account (EOA) and not a contract.\n     *\n     * Among others, `isContract` will return false for the following\n     * types of addresses:\n     *\n     *  - an externally-owned account\n     *  - a contract in construction\n     *  - an address where a contract will be created\n     *  - an address where a contract lived, but was destroyed\n     * ====\n     */\n    function isContract(address account) internal view returns (bool) {\n        // This method relies on extcodesize, which returns 0 for contracts in\n        // construction, since the code is only stored at the end of the\n        // constructor execution.\n\n        uint256 size;\n        // solhint-disable-next-line no-inline-assembly\n        assembly {\n            size := extcodesize(account)\n        }\n        return size > 0;\n    }\n\n    /**\n     * @dev Replacement for Solidity's `transfer`: sends `amount` wei to\n     * `recipient`, forwarding all available gas and reverting on errors.\n     *\n     * https://eips.ethereum.org/EIPS/eip-1884[EIP1884] increases the gas cost\n     * of certain opcodes, possibly making contracts go over the 2300 gas limit\n     * imposed by `transfer`, making them unable to receive funds via\n     * `transfer`. {sendValue} removes this limitation.\n     *\n     * https://diligence.consensys.net/posts/2019/09/stop-using-soliditys-transfer-now/[Learn more].\n     *\n     * IMPORTANT: because control is transferred to `recipient`, care must be\n     * taken to not create reentrancy vulnerabilities. Consider using\n     * {ReentrancyGuard} or the\n     * https://solidity.readthedocs.io/en/v0.5.11/security-considerations.html#use-the-checks-effects-interactions-pattern[checks-effects-interactions pattern].\n     */\n    function sendValue(address payable recipient, uint256 amount) internal {\n        require(\n            address(this).balance >= amount,\n            \"Address: insufficient balance\"\n        );\n\n        // solhint-disable-next-line avoid-low-level-calls, avoid-call-value\n        (bool success, ) = recipient.call{value: amount}(\"\");\n        require(\n            success,\n            \"Address: unable to send value, recipient may have reverted\"\n        );\n    }\n\n    /**\n     * @dev Performs a Solidity function call using a low level `call`. A\n     * plain`call` is an unsafe replacement for a function call: use this\n     * function instead.\n     *\n     * If `target` reverts with a revert reason, it is bubbled up by this\n     * function (like regular Solidity function calls).\n     *\n     * Returns the raw returned data. To convert to the expected return value,\n     * use https://solidity.readthedocs.io/en/latest/units-and-global-variables.html?highlight=abi.decode#abi-encoding-and-decoding-functions[`abi.decode`].\n     *\n     * Requirements:\n     *\n     * - `target` must be a contract.\n     * - calling `target` with `data` must not revert.\n     *\n     * _Available since v3.1._\n     */\n    function functionCall(address target, bytes memory data)\n        internal\n        returns (bytes memory)\n    {\n        return functionCall(target, data, \"Address: low-level call failed\");\n    }\n\n    /**\n     * @dev Same as {xref-Address-functionCall-address-bytes-}[`functionCall`], but with\n     * `errorMessage` as a fallback revert reason when `target` reverts.\n     *\n     * _Available since v3.1._\n     */\n    function functionCall(\n        address target,\n        bytes memory data,\n        string memory errorMessage\n    ) internal returns (bytes memory) {\n        return functionCallWithValue(target, data, 0, errorMessage);\n    }\n\n    /**\n     * @dev Same as {xref-Address-functionCall-address-bytes-}[`functionCall`],\n     * but also transferring `value` wei to `target`.\n     *\n     * Requirements:\n     *\n     * - the calling contract must have an ETH balance of at least `value`.\n     * - the called Solidity function must be `payable`.\n     *\n     * _Available since v3.1._\n     */\n    function functionCallWithValue(\n        address target,\n        bytes memory data,\n        uint256 value\n    ) internal returns (bytes memory) {\n        return\n            functionCallWithValue(\n                target,\n                data,\n                value,\n                \"Address: low-level call with value failed\"\n            );\n    }\n\n    /**\n     * @dev Same as {xref-Address-functionCallWithValue-address-bytes-uint256-}[`functionCallWithValue`], but\n     * with `errorMessage` as a fallback revert reason when `target` reverts.\n     *\n     * _Available since v3.1._\n     */\n    function functionCallWithValue(\n        address target,\n        bytes memory data,\n        uint256 value,\n        string memory errorMessage\n    ) internal returns (bytes memory) {\n        require(\n            address(this).balance >= value,\n            \"Address: insufficient balance for call\"\n        );\n        require(isContract(target), \"Address: call to non-contract\");\n\n        // solhint-disable-next-line avoid-low-level-calls\n        (bool success, bytes memory returndata) =\n            target.call{value: value}(data);\n        return _verifyCallResult(success, returndata, errorMessage);\n    }\n\n    /**\n     * @dev Same as {xref-Address-functionCall-address-bytes-}[`functionCall`],\n     * but performing a static call.\n     *\n     * _Available since v3.3._\n     */\n    function functionStaticCall(address target, bytes memory data)\n        internal\n        view\n        returns (bytes memory)\n    {\n        return\n            functionStaticCall(\n                target,\n                data,\n                \"Address: low-level static call failed\"\n            );\n    }\n\n    /**\n     * @dev Same as {xref-Address-functionCall-address-bytes-string-}[`functionCall`],\n     * but performing a static call.\n     *\n     * _Available since v3.3._\n     */\n    function functionStaticCall(\n        address target,\n        bytes memory data,\n        string memory errorMessage\n    ) internal view returns (bytes memory) {\n        require(isContract(target), \"Address: static call to non-contract\");\n\n        // solhint-disable-next-line avoid-low-level-calls\n        (bool success, bytes memory returndata) = target.staticcall(data);\n        return _verifyCallResult(success, returndata, errorMessage);\n    }\n\n    /**\n     * @dev Same as {xref-Address-functionCall-address-bytes-}[`functionCall`],\n     * but performing a delegate call.\n     *\n     * _Available since v3.4._\n     */\n    function functionDelegateCall(address target, bytes memory data)\n        internal\n        returns (bytes memory)\n    {\n        return\n            functionDelegateCall(\n                target,\n                data,\n                \"Address: low-level delegate call failed\"\n            );\n    }\n\n    /**\n     * @dev Same as {xref-Address-functionCall-address-bytes-string-}[`functionCall`],\n     * but performing a delegate call.\n     *\n     * _Available since v3.4._\n     */\n    function functionDelegateCall(\n        address target,\n        bytes memory data,\n        string memory errorMessage\n    ) internal returns (bytes memory) {\n        require(isContract(target), \"Address: delegate call to non-contract\");\n\n        // solhint-disable-next-line avoid-low-level-calls\n        (bool success, bytes memory returndata) = target.delegatecall(data);\n        return _verifyCallResult(success, returndata, errorMessage);\n    }\n\n    function _verifyCallResult(\n        bool success,\n        bytes memory returndata,\n        string memory errorMessage\n    ) private pure returns (bytes memory) {\n        if (success) {\n            return returndata;\n        } else {\n            // Look for revert reason and bubble it up if present\n            if (returndata.length > 0) {\n                // The easiest way to bubble the revert reason is using memory via assembly\n\n                // solhint-disable-next-line no-inline-assembly\n                assembly {\n                    let returndata_size := mload(returndata)\n                    revert(add(32, returndata), returndata_size)\n                }\n            } else {\n                revert(errorMessage);\n            }\n        }\n    }\n}\n\n// File: @openzeppelin/contracts/token/ERC20/SafeERC20.sol\n\npragma solidity >=0.6.0 <0.8.0;\n\n/**\n * @title SafeERC20\n * @dev Wrappers around ERC20 operations that throw on failure (when the token\n * contract returns false). Tokens that return no value (and instead revert or\n * throw on failure) are also supported, non-reverting calls are assumed to be\n * successful.\n * To use this library you can add a `using SafeERC20 for IERC20;` statement to your contract,\n * which allows you to call the safe operations as `token.safeTransfer(...)`, etc.\n */\nlibrary SafeERC20 {\n    using SafeMath for uint256;\n    using Address for address;\n\n    function safeTransfer(\n        IERC20 token,\n        address to,\n        uint256 value\n    ) internal {\n        _callOptionalReturn(\n            token,\n            abi.encodeWithSelector(token.transfer.selector, to, value)\n        );\n    }\n\n    function safeTransferFrom(\n        IERC20 token,\n        address from,\n        address to,\n        uint256 value\n    ) internal {\n        _callOptionalReturn(\n            token,\n            abi.encodeWithSelector(token.transferFrom.selector, from, to, value)\n        );\n    }\n\n    /**\n     * @dev Deprecated. This function has issues similar to the ones found in\n     * {IERC20-approve}, and its usage is discouraged.\n     *\n     * Whenever possible, use {safeIncreaseAllowance} and\n     * {safeDecreaseAllowance} instead.\n     */\n    function safeApprove(\n        IERC20 token,\n        address spender,\n        uint256 value\n    ) internal {\n        // safeApprove should only be called when setting an initial allowance,\n        // or when resetting it to zero. To increase and decrease it, use\n        // 'safeIncreaseAllowance' and 'safeDecreaseAllowance'\n        // solhint-disable-next-line max-line-length\n        require(\n            (value == 0) || (token.allowance(address(this), spender) == 0),\n            \"SafeERC20: approve from non-zero to non-zero allowance\"\n        );\n        _callOptionalReturn(\n            token,\n            abi.encodeWithSelector(token.approve.selector, spender, value)\n        );\n    }\n\n    function safeIncreaseAllowance(\n        IERC20 token,\n        address spender,\n        uint256 value\n    ) internal {\n        uint256 newAllowance =\n            token.allowance(address(this), spender).add(value);\n        _callOptionalReturn(\n            token,\n            abi.encodeWithSelector(\n                token.approve.selector,\n                spender,\n                newAllowance\n            )\n        );\n    }\n\n    function safeDecreaseAllowance(\n        IERC20 token,\n        address spender,\n        uint256 value\n    ) internal {\n        uint256 newAllowance =\n            token.allowance(address(this), spender).sub(\n                value,\n                \"SafeERC20: decreased allowance below zero\"\n            );\n        _callOptionalReturn(\n            token,\n            abi.encodeWithSelector(\n                token.approve.selector,\n                spender,\n                newAllowance\n            )\n        );\n    }\n\n    /**\n     * @dev Imitates a Solidity high-level call (i.e. a regular function call to a contract), relaxing the requirement\n     * on the return value: the return value is optional (but if data is returned, it must not be false).\n     * @param token The token targeted by the call.\n     * @param data The call data (encoded using abi.encode or one of its variants).\n     */\n    function _callOptionalReturn(IERC20 token, bytes memory data) private {\n        // We need to perform a low level call here, to bypass Solidity's return data size checking mechanism, since\n        // we're implementing it ourselves. We use {Address.functionCall} to perform this call, which verifies that\n        // the target address contains contract code and also asserts for success in the low-level call.\n\n        bytes memory returndata =\n            address(token).functionCall(\n                data,\n                \"SafeERC20: low-level call failed\"\n            );\n        if (returndata.length > 0) {\n            // Return data is optional\n            // solhint-disable-next-line max-line-length\n            require(\n                abi.decode(returndata, (bool)),\n                \"SafeERC20: ERC20 operation did not succeed\"\n            );\n        }\n    }\n}\n\n// File: @openzeppelin/contracts/utils/Context.sol\n\npragma solidity >=0.6.0 <0.8.0;\n\n/*\n * @dev Provides information about the current execution context, including the\n * sender of the transaction and its data. While these are generally available\n * via msg.sender and msg.data, they should not be accessed in such a direct\n * manner, since when dealing with GSN meta-transactions the account sending and\n * paying for execution may not be the actual sender (as far as an application\n * is concerned).\n *\n * This contract is only required for intermediate, library-like contracts.\n */\nabstract contract Context {\n    function _msgSender() internal view virtual returns (address payable) {\n        return msg.sender;\n    }\n\n    function _msgData() internal view virtual returns (bytes memory) {\n        this; // silence state mutability warning without generating bytecode - see https://github.com/ethereum/solidity/issues/2691\n        return msg.data;\n    }\n}\n\n// File: @openzeppelin/contracts/access/Ownable.sol\n\npragma solidity >=0.6.0 <0.8.0;\n\n/**\n * @dev Contract module which provides a basic access control mechanism, where\n * there is an account (an owner) that can be granted exclusive access to\n * specific functions.\n *\n * By default, the owner account will be the one that deploys the contract. This\n * can later be changed with {transferOwnership}.\n *\n * This module is used through inheritance. It will make available the modifier\n * `onlyOwner`, which can be applied to your functions to restrict their use to\n * the owner.\n */\nabstract contract Ownable is Context {\n    address private _owner;\n\n    event OwnershipTransferred(\n        address indexed previousOwner,\n        address indexed newOwner\n    );\n\n    /**\n     * @dev Initializes the contract setting the deployer as the initial owner.\n     */\n    constructor() internal {\n        address msgSender = _msgSender();\n        _owner = msgSender;\n        emit OwnershipTransferred(address(0), msgSender);\n    }\n\n    /**\n     * @dev Returns the address of the current owner.\n     */\n    function owner() public view virtual returns (address) {\n        return _owner;\n    }\n\n    /**\n     * @dev Throws if called by any account other than the owner.\n     */\n    modifier onlyOwner() {\n        require(owner() == _msgSender(), \"Ownable: caller is not the owner\");\n        _;\n    }\n\n    /**\n     * @dev Leaves the contract without owner. It will not be possible to call\n     * `onlyOwner` functions anymore. Can only be called by the current owner.\n     *\n     * NOTE: Renouncing ownership will leave the contract without an owner,\n     * thereby removing any functionality that is only available to the owner.\n     */\n    function renounceOwnership() public virtual onlyOwner {\n        emit OwnershipTransferred(_owner, address(0));\n        _owner = address(0);\n    }\n\n    /**\n     * @dev Transfers ownership of the contract to a new account (`newOwner`).\n     * Can only be called by the current owner.\n     */\n    function transferOwnership(address newOwner) public virtual onlyOwner {\n        require(\n            newOwner != address(0),\n            \"Ownable: new owner is the zero address\"\n        );\n        emit OwnershipTransferred(_owner, newOwner);\n        _owner = newOwner;\n    }\n}\n\n// File: @openzeppelin/contracts/utils/ReentrancyGuard.sol\n\npragma solidity >=0.6.0 <0.8.0;\n\n/**\n * @dev Contract module that helps prevent reentrant calls to a function.\n *\n * Inheriting from `ReentrancyGuard` will make the {nonReentrant} modifier\n * available, which can be applied to functions to make sure there are no nested\n * (reentrant) calls to them.\n *\n * Note that because there is a single `nonReentrant` guard, functions marked as\n * `nonReentrant` may not call one another. This can be worked around by making\n * those functions `private`, and then adding `external` `nonReentrant` entry\n * points to them.\n *\n * TIP: If you would like to learn more about reentrancy and alternative ways\n * to protect against it, check out our blog post\n * https://blog.openzeppelin.com/reentrancy-after-istanbul/[Reentrancy After Istanbul].\n */\nabstract contract ReentrancyGuard {\n    // Booleans are more expensive than uint256 or any type that takes up a full\n    // word because each write operation emits an extra SLOAD to first read the\n    // slot's contents, replace the bits taken up by the boolean, and then write\n    // back. This is the compiler's defense against contract upgrades and\n    // pointer aliasing, and it cannot be disabled.\n\n    // The values being non-zero value makes deployment a bit more expensive,\n    // but in exchange the refund on every call to nonReentrant will be lower in\n    // amount. Since refunds are capped to a percentage of the total\n    // transaction's gas, it is best to keep them low in cases like this one, to\n    // increase the likelihood of the full refund coming into effect.\n    uint256 private constant _NOT_ENTERED = 1;\n    uint256 private constant _ENTERED = 2;\n\n    uint256 private _status;\n\n    constructor() internal {\n        _status = _NOT_ENTERED;\n    }\n\n    /**\n     * @dev Prevents a contract from calling itself, directly or indirectly.\n     * Calling a `nonReentrant` function from another `nonReentrant`\n     * function is not supported. It is possible to prevent this from happening\n     * by making the `nonReentrant` function external, and make it call a\n     * `private` function that does the actual work.\n     */\n    modifier nonReentrant() {\n        // On the first call to nonReentrant, _notEntered will be true\n        require(_status != _ENTERED, \"ReentrancyGuard: reentrant call\");\n\n        // Any calls to nonReentrant after this point will fail\n        _status = _ENTERED;\n\n        _;\n\n        // By storing the original value once again, a refund is triggered (see\n        // https://eips.ethereum.org/EIPS/eip-2200)\n        _status = _NOT_ENTERED;\n    }\n}\n\n// File: @openzeppelin/contracts/token/ERC20/ERC20.sol\n\npragma solidity >=0.6.0 <0.8.0;\n\n/**\n * @dev Implementation of the {IERC20} interface.\n *\n * This implementation is agnostic to the way tokens are created. This means\n * that a supply mechanism has to be added in a derived contract using {_mint}.\n * For a generic mechanism see {ERC20PresetMinterPauser}.\n *\n * TIP: For a detailed writeup see our guide\n * https://forum.zeppelin.solutions/t/how-to-implement-erc20-supply-mechanisms/226[How\n * to implement supply mechanisms].\n *\n * We have followed general OpenZeppelin guidelines: functions revert instead\n * of returning `false` on failure. This behavior is nonetheless conventional\n * and does not conflict with the expectations of ERC20 applications.\n *\n * Additionally, an {Approval} event is emitted on calls to {transferFrom}.\n * This allows applications to reconstruct the allowance for all accounts just\n * by listening to said events. Other implementations of the EIP may not emit\n * these events, as it isn't required by the specification.\n *\n * Finally, the non-standard {decreaseAllowance} and {increaseAllowance}\n * functions have been added to mitigate the well-known issues around setting\n * allowances. See {IERC20-approve}.\n */\ncontract ERC20 is Context, IERC20 {\n    using SafeMath for uint256;\n\n    mapping(address => uint256) private _balances;\n\n    mapping(address => mapping(address => uint256)) private _allowances;\n\n    uint256 private _totalSupply;\n\n    string private _name;\n    string private _symbol;\n    uint8 private _decimals;\n\n    /**\n     * @dev Sets the values for {name} and {symbol}, initializes {decimals} with\n     * a default value of 18.\n     *\n     * To select a different value for {decimals}, use {_setupDecimals}.\n     *\n     * All three of these values are immutable: they can only be set once during\n     * construction.\n     */\n    constructor(string memory name_, string memory symbol_) public {\n        _name = name_;\n        _symbol = symbol_;\n        _decimals = 18;\n    }\n\n    /**\n     * @dev Returns the name of the token.\n     */\n    function name() public view virtual returns (string memory) {\n        return _name;\n    }\n\n    /**\n     * @dev Returns the symbol of the token, usually a shorter version of the\n     * name.\n     */\n    function symbol() public view virtual returns (string memory) {\n        return _symbol;\n    }\n\n    /**\n     * @dev Returns the number of decimals used to get its user representation.\n     * For example, if `decimals` equals `2`, a balance of `505` tokens should\n     * be displayed to a user as `5,05` (`505 / 10 ** 2`).\n     *\n     * Tokens usually opt for a value of 18, imitating the relationship between\n     * Ether and Wei. This is the value {ERC20} uses, unless {_setupDecimals} is\n     * called.\n     *\n     * NOTE: This information is only used for _display_ purposes: it in\n     * no way affects any of the arithmetic of the contract, including\n     * {IERC20-balanceOf} and {IERC20-transfer}.\n     */\n    function decimals() public view virtual returns (uint8) {\n        return _decimals;\n    }\n\n    /**\n     * @dev See {IERC20-totalSupply}.\n     */\n    function totalSupply() public view virtual override returns (uint256) {\n        return _totalSupply;\n    }\n\n    /**\n     * @dev See {IERC20-balanceOf}.\n     */\n    function balanceOf(address account)\n        public\n        view\n        virtual\n        override\n        returns (uint256)\n    {\n        return _balances[account];\n    }\n\n    /**\n     * @dev See {IERC20-transfer}.\n     *\n     * Requirements:\n     *\n     * - `recipient` cannot be the zero address.\n     * - the caller must have a balance of at least `amount`.\n     */\n    function transfer(address recipient, uint256 amount)\n        public\n        virtual\n        override\n        returns (bool)\n    {\n        _transfer(_msgSender(), recipient, amount);\n        return true;\n    }\n\n    /**\n     * @dev See {IERC20-allowance}.\n     */\n    function allowance(address owner, address spender)\n        public\n        view\n        virtual\n        override\n        returns (uint256)\n    {\n        return _allowances[owner][spender];\n    }\n\n    /**\n     * @dev See {IERC20-approve}.\n     *\n     * Requirements:\n     *\n     * - `spender` cannot be the zero address.\n     */\n    function approve(address spender, uint256 amount)\n        public\n        virtual\n        override\n        returns (bool)\n    {\n        _approve(_msgSender(), spender, amount);\n        return true;\n    }\n\n    /**\n     * @dev See {IERC20-transferFrom}.\n     *\n     * Emits an {Approval} event indicating the updated allowance. This is not\n     * required by the EIP. See the note at the beginning of {ERC20}.\n     *\n     * Requirements:\n     *\n     * - `sender` and `recipient` cannot be the zero address.\n     * - `sender` must have a balance of at least `amount`.\n     * - the caller must have allowance for ``sender``'s tokens of at least\n     * `amount`.\n     */\n    function transferFrom(\n        address sender,\n        address recipient,\n        uint256 amount\n    ) public virtual override returns (bool) {\n        _transfer(sender, recipient, amount);\n        _approve(\n            sender,\n            _msgSender(),\n            _allowances[sender][_msgSender()].sub(\n                amount,\n                \"ERC20: transfer amount exceeds allowance\"\n            )\n        );\n        return true;\n    }\n\n    /**\n     * @dev Atomically increases the allowance granted to `spender` by the caller.\n     *\n     * This is an alternative to {approve} that can be used as a mitigation for\n     * problems described in {IERC20-approve}.\n     *\n     * Emits an {Approval} event indicating the updated allowance.\n     *\n     * Requirements:\n     *\n     * - `spender` cannot be the zero address.\n     */\n    function increaseAllowance(address spender, uint256 addedValue)\n        public\n        virtual\n        returns (bool)\n    {\n        _approve(\n            _msgSender(),\n            spender,\n            _allowances[_msgSender()][spender].add(addedValue)\n        );\n        return true;\n    }\n\n    /**\n     * @dev Atomically decreases the allowance granted to `spender` by the caller.\n     *\n     * This is an alternative to {approve} that can be used as a mitigation for\n     * problems described in {IERC20-approve}.\n     *\n     * Emits an {Approval} event indicating the updated allowance.\n     *\n     * Requirements:\n     *\n     * - `spender` cannot be the zero address.\n     * - `spender` must have allowance for the caller of at least\n     * `subtractedValue`.\n     */\n    function decreaseAllowance(address spender, uint256 subtractedValue)\n        public\n        virtual\n        returns (bool)\n    {\n        _approve(\n            _msgSender(),\n            spender,\n            _allowances[_msgSender()][spender].sub(\n                subtractedValue,\n                \"ERC20: decreased allowance below zero\"\n            )\n        );\n        return true;\n    }\n\n    /**\n     * @dev Moves tokens `amount` from `sender` to `recipient`.\n     *\n     * This is internal function is equivalent to {transfer}, and can be used to\n     * e.g. implement automatic token fees, slashing mechanisms, etc.\n     *\n     * Emits a {Transfer} event.\n     *\n     * Requirements:\n     *\n     * - `sender` cannot be the zero address.\n     * - `recipient` cannot be the zero address.\n     * - `sender` must have a balance of at least `amount`.\n     */\n    function _transfer(\n        address sender,\n        address recipient,\n        uint256 amount\n    ) internal virtual {\n        require(sender != address(0), \"ERC20: transfer from the zero address\");\n        require(recipient != address(0), \"ERC20: transfer to the zero address\");\n\n        _beforeTokenTransfer(sender, recipient, amount);\n\n        _balances[sender] = _balances[sender].sub(\n            amount,\n            \"ERC20: transfer amount exceeds balance\"\n        );\n        _balances[recipient] = _balances[recipient].add(amount);\n        emit Transfer(sender, recipient, amount);\n    }\n\n    /** @dev Creates `amount` tokens and assigns them to `account`, increasing\n     * the total supply.\n     *\n     * Emits a {Transfer} event with `from` set to the zero address.\n     *\n     * Requirements:\n     *\n     * - `to` cannot be the zero address.\n     */\n    function _mint(address account, uint256 amount) internal virtual {\n        require(account != address(0), \"ERC20: mint to the zero address\");\n\n        _beforeTokenTransfer(address(0), account, amount);\n\n        _totalSupply = _totalSupply.add(amount);\n        _balances[account] = _balances[account].add(amount);\n        emit Transfer(address(0), account, amount);\n    }\n\n    /**\n     * @dev Destroys `amount` tokens from `account`, reducing the\n     * total supply.\n     *\n     * Emits a {Transfer} event with `to` set to the zero address.\n     *\n     * Requirements:\n     *\n     * - `account` cannot be the zero address.\n     * - `account` must have at least `amount` tokens.\n     */\n    function _burn(address account, uint256 amount) internal virtual {\n        require(account != address(0), \"ERC20: burn from the zero address\");\n\n        _beforeTokenTransfer(account, address(0), amount);\n\n        _balances[account] = _balances[account].sub(\n            amount,\n            \"ERC20: burn amount exceeds balance\"\n        );\n        _totalSupply = _totalSupply.sub(amount);\n        emit Transfer(account, address(0), amount);\n    }\n\n    /**\n     * @dev Sets `amount` as the allowance of `spender` over the `owner` s tokens.\n     *\n     * This internal function is equivalent to `approve`, and can be used to\n     * e.g. set automatic allowances for certain subsystems, etc.\n     *\n     * Emits an {Approval} event.\n     *\n     * Requirements:\n     *\n     * - `owner` cannot be the zero address.\n     * - `spender` cannot be the zero address.\n     */\n    function _approve(\n        address owner,\n        address spender,\n        uint256 amount\n    ) internal virtual {\n        require(owner != address(0), \"ERC20: approve from the zero address\");\n        require(spender != address(0), \"ERC20: approve to the zero address\");\n\n        _allowances[owner][spender] = amount;\n        emit Approval(owner, spender, amount);\n    }\n\n    /**\n     * @dev Sets {decimals} to a value other than the default one of 18.\n     *\n     * WARNING: This function should only be called from the constructor. Most\n     * applications that interact with token contracts will not expect\n     * {decimals} to ever change, and may work incorrectly if it does.\n     */\n    function _setupDecimals(uint8 decimals_) internal virtual {\n        _decimals = decimals_;\n    }\n\n    /**\n     * @dev Hook that is called before any transfer of tokens. This includes\n     * minting and burning.\n     *\n     * Calling conditions:\n     *\n     * - when `from` and `to` are both non-zero, `amount` of ``from``'s tokens\n     * will be to transferred to `to`.\n     * - when `from` is zero, `amount` tokens will be minted for `to`.\n     * - when `to` is zero, `amount` of ``from``'s tokens will be burned.\n     * - `from` and `to` are never both zero.\n     *\n     * To learn more about hooks, head to xref:ROOT:extending-contracts.adoc#using-hooks[Using Hooks].\n     */\n    function _beforeTokenTransfer(\n        address from,\n        address to,\n        uint256 amount\n    ) internal virtual {}\n}\n\n// File: contracts/Krill.sol\n\npragma solidity 0.7.4;\n\ncontract Krill is ERC20(\"TrashBag\", \"TrashBag\"), Ownable {\n    function mint(address _to, uint256 _amount) public onlyOwner {\n        _mint(_to, _amount);\n    }\n}\n\n// File: contracts/MasterChef.sol\n\npragma solidity 0.7.4;\n\n// MasterChef is the master of Krill. He can make Krill and he is a fair guy.\n//\n// Note that it's ownable and the owner wields tremendous power. The ownership\n// will be transferred to a governance smart contract once KRILL is sufficiently\n// distributed and the community can show to govern itself.\n//\n// Have fun reading it. Hopefully it's bug-free. God bless.\ncontract MasterChef is Ownable, ReentrancyGuard {\n    using SafeMath for uint256;\n    using SafeERC20 for IERC20;\n\n    // Info of each user.\n    struct UserInfo {\n        uint256 amount; // How many LP tokens the user has provided.\n        uint256 rewardDebt; // Reward debt. See explanation below.\n        //\n        // We do some fancy math here. Basically, any point in time, the amount of KRILLs\n        // entitled to a user but is pending to be distributed is:\n        //\n        //   pending reward = (user.amount * pool.accKrillPerShare) - user.rewardDebt\n        //\n        // Whenever a user deposits or withdraws LP tokens to a pool. Here's what happens:\n        //   1. The pool's `accKrillPerShare` (and `lastRewardBlock`) gets updated.\n        //   2. User receives the pending reward sent to his/her address.\n        //   3. User's `amount` gets updated.\n        //   4. User's `rewardDebt` gets updated.\n    }\n\n    // Info of each pool.\n    struct PoolInfo {\n        IERC20 lpToken; // Address of LP token contract.\n        uint256 allocPoint; // How many allocation points assigned to this pool. KRILLs to distribute per block.\n        uint256 lastRewardBlock; // Last block number that KRILLs distribution occurs.\n        uint256 accKrillPerShare; // Accumulated KRILLs per share, times 1e12. See below.\n        uint16 depositFeeBP; // Deposit fee in basis points\n    }\n\n    // The KRILL TOKEN!\n    Krill public krill;\n    // Dev address.\n    address public devaddr;\n    // KRILL tokens created per block.\n    uint256 public krillPerBlock;\n    // Bonus muliplier for early krill makers.\n    uint256 public constant BONUS_MULTIPLIER = 1;\n    // Deposit Fee address\n    address public feeAddress;\n\n    // Info of each pool.\n    PoolInfo[] public poolInfo;\n    // Info of each user that stakes LP tokens.\n    mapping(uint256 => mapping(address => UserInfo)) public userInfo;\n    // Total allocation points. Must be the sum of all allocation points in all pools.\n    uint256 public totalAllocPoint = 0;\n    // The block number when KRILL mining starts.\n    uint256 public startBlock;\n\n    event Deposit(address indexed user, uint256 indexed pid, uint256 amount);\n    event Withdraw(address indexed user, uint256 indexed pid, uint256 amount);\n    event EmergencyWithdraw(\n        address indexed user,\n        uint256 indexed pid,\n        uint256 amount\n    );\n    event SetFeeAddress(address indexed user, address indexed newAddress);\n    event SetDevAddress(address indexed user, address indexed newAddress);\n    event UpdateEmissionRate(address indexed user, uint256 goosePerBlock);\n\n    constructor(\n        Krill _krill,\n        address _devaddr,\n        address _feeAddress,\n        uint256 _krillPerBlock,\n        uint256 _startBlock\n    ) public {\n        krill = _krill;\n        devaddr = _devaddr;\n        feeAddress = _feeAddress;\n        krillPerBlock = _krillPerBlock;\n        startBlock = _startBlock;\n    }\n\n    function poolLength() external view returns (uint256) {\n        return poolInfo.length;\n    }\n\n    mapping(IERC20 => bool) public poolExistence;\n    modifier nonDuplicated(IERC20 _lpToken) {\n        require(poolExistence[_lpToken] == false, \"nonDuplicated: duplicated\");\n        _;\n    }\n\n    // Add a new lp to the pool. Can only be called by the owner.\n    function add(\n        uint256 _allocPoint,\n        IERC20 _lpToken,\n        uint16 _depositFeeBP,\n        bool _withUpdate\n    ) public onlyOwner nonDuplicated(_lpToken) {\n        require(\n            _depositFeeBP <= 10000,\n            \"add: invalid deposit fee basis points\"\n        );\n        if (_withUpdate) {\n            massUpdatePools();\n        }\n        uint256 lastRewardBlock =\n            block.number > startBlock ? block.number : startBlock;\n        totalAllocPoint = totalAllocPoint.add(_allocPoint);\n        poolExistence[_lpToken] = true;\n        poolInfo.push(\n            PoolInfo({\n                lpToken: _lpToken,\n                allocPoint: _allocPoint,\n                lastRewardBlock: lastRewardBlock,\n                accKrillPerShare: 0,\n                depositFeeBP: _depositFeeBP\n            })\n        );\n    }\n\n    // Update the given pool's KRILL allocation point and deposit fee. Can only be called by the owner.\n    function set(\n        uint256 _pid,\n        uint256 _allocPoint,\n        uint16 _depositFeeBP,\n        bool _withUpdate\n    ) public onlyOwner {\n        require(\n            _depositFeeBP <= 10000,\n            \"set: invalid deposit fee basis points\"\n        );\n        if (_withUpdate) {\n            massUpdatePools();\n        }\n        totalAllocPoint = totalAllocPoint.sub(poolInfo[_pid].allocPoint).add(\n            _allocPoint\n        );\n        poolInfo[_pid].allocPoint = _allocPoint;\n        poolInfo[_pid].depositFeeBP = _depositFeeBP;\n    }\n\n    // Return reward multiplier over the given _from to _to block.\n    function getMultiplier(uint256 _from, uint256 _to)\n        public\n        view\n        returns (uint256)\n    {\n        return _to.sub(_from).mul(BONUS_MULTIPLIER);\n    }\n\n    // View function to see pending KRILLs on frontend.\n    function pendingKrill(uint256 _pid, address _user)\n        external\n        view\n        returns (uint256)\n    {\n        PoolInfo storage pool = poolInfo[_pid];\n        UserInfo storage user = userInfo[_pid][_user];\n        uint256 accKrillPerShare = pool.accKrillPerShare;\n        uint256 lpSupply = pool.lpToken.balanceOf(address(this));\n        if (block.number > pool.lastRewardBlock && lpSupply != 0) {\n            uint256 multiplier =\n                getMultiplier(pool.lastRewardBlock, block.number);\n            uint256 krillReward =\n                multiplier.mul(krillPerBlock).mul(pool.allocPoint).div(\n                    totalAllocPoint\n                );\n            accKrillPerShare = accKrillPerShare.add(\n                krillReward.mul(1e12).div(lpSupply)\n            );\n        }\n        return user.amount.mul(accKrillPerShare).div(1e12).sub(user.rewardDebt);\n    }\n\n    // Update reward variables for all pools. Be careful of gas spending!\n    function massUpdatePools() public {\n        uint256 length = poolInfo.length;\n        for (uint256 pid = 0; pid < length; ++pid) {\n            updatePool(pid);\n        }\n    }\n\n    // Update reward variables of the given pool to be up-to-date.\n    function updatePool(uint256 _pid) public {\n        PoolInfo storage pool = poolInfo[_pid];\n        if (block.number <= pool.lastRewardBlock) {\n            return;\n        }\n        uint256 lpSupply = pool.lpToken.balanceOf(address(this));\n        if (lpSupply == 0 || pool.allocPoint == 0) {\n            pool.lastRewardBlock = block.number;\n            return;\n        }\n        uint256 multiplier = getMultiplier(pool.lastRewardBlock, block.number);\n        uint256 krillReward =\n            multiplier.mul(krillPerBlock).mul(pool.allocPoint).div(\n                totalAllocPoint\n            );\n        krill.mint(devaddr, krillReward.div(10));\n        krill.mint(address(this), krillReward);\n        pool.accKrillPerShare = pool.accKrillPerShare.add(\n            krillReward.mul(1e12).div(lpSupply)\n        );\n        pool.lastRewardBlock = block.number;\n    }\n\n    // Deposit LP tokens to MasterChef for KRILL allocation.\n    function deposit(uint256 _pid, uint256 _amount) public nonReentrant {\n        PoolInfo storage pool = poolInfo[_pid];\n        UserInfo storage user = userInfo[_pid][msg.sender];\n        updatePool(_pid);\n        if (user.amount > 0) {\n            uint256 pending =\n                user.amount.mul(pool.accKrillPerShare).div(1e12).sub(\n                    user.rewardDebt\n                );\n            if (pending > 0) {\n                safeKrillTransfer(msg.sender, pending);\n            }\n        }\n        if (_amount > 0) {\n            pool.lpToken.safeTransferFrom(\n                address(msg.sender),\n                address(this),\n                _amount\n            );\n            if (pool.depositFeeBP > 0) {\n                uint256 depositFee = _amount.mul(pool.depositFeeBP).div(10000);\n                pool.lpToken.safeTransfer(feeAddress, depositFee);\n                user.amount = user.amount.add(_amount).sub(depositFee);\n            } else {\n                user.amount = user.amount.add(_amount);\n            }\n        }\n        user.rewardDebt = user.amount.mul(pool.accKrillPerShare).div(1e12);\n        emit Deposit(msg.sender, _pid, _amount);\n    }\n\n    // Withdraw LP tokens from MasterChef.\n    function withdraw(uint256 _pid, uint256 _amount) public nonReentrant {\n        PoolInfo storage pool = poolInfo[_pid];\n        UserInfo storage user = userInfo[_pid][msg.sender];\n        require(user.amount >= _amount, \"withdraw: not good\");\n        updatePool(_pid);\n        uint256 pending =\n            user.amount.mul(pool.accKrillPerShare).div(1e12).sub(\n                user.rewardDebt\n            );\n        if (pending > 0) {\n            safeKrillTransfer(msg.sender, pending);\n        }\n        if (_amount > 0) {\n            user.amount = user.amount.sub(_amount);\n            pool.lpToken.safeTransfer(address(msg.sender), _amount);\n        }\n        user.rewardDebt = user.amount.mul(pool.accKrillPerShare).div(1e12);\n        emit Withdraw(msg.sender, _pid, _amount);\n    }\n\n    // Withdraw without caring about rewards. EMERGENCY ONLY.\n    function emergencyWithdraw(uint256 _pid) public nonReentrant {\n        PoolInfo storage pool = poolInfo[_pid];\n        UserInfo storage user = userInfo[_pid][msg.sender];\n        uint256 amount = user.amount;\n        user.amount = 0;\n        user.rewardDebt = 0;\n        pool.lpToken.safeTransfer(address(msg.sender), amount);\n        emit EmergencyWithdraw(msg.sender, _pid, amount);\n    }\n\n    // Safe krill transfer function, just in case if rounding error causes pool to not have enough KRILLs.\n    function safeKrillTransfer(address _to, uint256 _amount) internal {\n        uint256 krillBal = krill.balanceOf(address(this));\n        bool transferSuccess = false;\n        if (_amount > krillBal) {\n            transferSuccess = krill.transfer(_to, krillBal);\n        } else {\n            transferSuccess = krill.transfer(_to, _amount);\n        }\n        require(transferSuccess, \"safeKrillTransfer: transfer failed\");\n    }\n\n    // Update dev address by the previous dev.\n    function dev(address _devaddr) public {\n        require(msg.sender == devaddr, \"dev: wut?\");\n        devaddr = _devaddr;\n        emit SetDevAddress(msg.sender, _devaddr);\n    }\n\n    function setFeeAddress(address _feeAddress) public {\n        require(msg.sender == feeAddress, \"setFeeAddress: FORBIDDEN\");\n        feeAddress = _feeAddress;\n        emit SetFeeAddress(msg.sender, _feeAddress);\n    }\n\n    //Pancake has to add hidden dummy pools inorder to alter the emission, here we make it simple and transparent to all.\n    function updateEmissionRate(uint256 _krillPerBlock) public onlyOwner {\n        massUpdatePools();\n        krillPerBlock = _krillPerBlock;\n        emit UpdateEmissionRate(msg.sender, _krillPerBlock);\n    }\n\n    //Only update before start of farm\n    function updateStartBlock(uint256 _startBlock) public onlyOwner {\n        startBlock = _startBlock;\n    }\n}\n",
  "sourcePath": "/Users/szabolcs/Documents/Personal/Szakmai/Ethereum/moonwolf.io-poc/contracts/MasterChef.sol",
  "compiler": {
    "name": "solc",
    "version": "0.7.4+commit.3f05b770.Emscripten.clang"
  },
  "schemaVersion": "3.3.4",
  "updatedAt": "2021-04-30T09:33:56.300Z",
  "networkType": "ethereum",
  "devdoc": {
    "kind": "dev",
    "methods": {
      "owner()": {
        "details": "Returns the address of the current owner."
      },
      "renounceOwnership()": {
        "details": "Leaves the contract without owner. It will not be possible to call `onlyOwner` functions anymore. Can only be called by the current owner. NOTE: Renouncing ownership will leave the contract without an owner, thereby removing any functionality that is only available to the owner."
      },
      "transferOwnership(address)": {
        "details": "Transfers ownership of the contract to a new account (`newOwner`). Can only be called by the current owner."
      }
    },
    "version": 1
  },
  "userdoc": {
    "kind": "user",
    "methods": {},
    "version": 1
  }
}