{
  "contractName": "MoonwolfPoc",
  "abi": [
    {
      "anonymous": false,
      "inputs": [
        {
          "indexed": true,
          "internalType": "address",
          "name": "account",
          "type": "address"
        },
        {
          "indexed": true,
          "internalType": "address",
          "name": "operator",
          "type": "address"
        },
        {
          "indexed": false,
          "internalType": "bool",
          "name": "approved",
          "type": "bool"
        }
      ],
      "name": "ApprovalForAll",
      "type": "event"
    },
    {
      "anonymous": false,
      "inputs": [
        {
          "indexed": true,
          "internalType": "address",
          "name": "previousOwner",
          "type": "address"
        },
        {
          "indexed": true,
          "internalType": "address",
          "name": "newOwner",
          "type": "address"
        }
      ],
      "name": "OwnershipTransferred",
      "type": "event"
    },
    {
      "anonymous": false,
      "inputs": [
        {
          "indexed": false,
          "internalType": "address",
          "name": "account",
          "type": "address"
        }
      ],
      "name": "Paused",
      "type": "event"
    },
    {
      "anonymous": false,
      "inputs": [
        {
          "indexed": true,
          "internalType": "address",
          "name": "operator",
          "type": "address"
        },
        {
          "indexed": true,
          "internalType": "address",
          "name": "from",
          "type": "address"
        },
        {
          "indexed": true,
          "internalType": "address",
          "name": "to",
          "type": "address"
        },
        {
          "indexed": false,
          "internalType": "uint256[]",
          "name": "ids",
          "type": "uint256[]"
        },
        {
          "indexed": false,
          "internalType": "uint256[]",
          "name": "values",
          "type": "uint256[]"
        }
      ],
      "name": "TransferBatch",
      "type": "event"
    },
    {
      "anonymous": false,
      "inputs": [
        {
          "indexed": true,
          "internalType": "address",
          "name": "operator",
          "type": "address"
        },
        {
          "indexed": true,
          "internalType": "address",
          "name": "from",
          "type": "address"
        },
        {
          "indexed": true,
          "internalType": "address",
          "name": "to",
          "type": "address"
        },
        {
          "indexed": false,
          "internalType": "uint256",
          "name": "id",
          "type": "uint256"
        },
        {
          "indexed": false,
          "internalType": "uint256",
          "name": "value",
          "type": "uint256"
        }
      ],
      "name": "TransferSingle",
      "type": "event"
    },
    {
      "anonymous": false,
      "inputs": [
        {
          "indexed": false,
          "internalType": "string",
          "name": "value",
          "type": "string"
        },
        {
          "indexed": true,
          "internalType": "uint256",
          "name": "id",
          "type": "uint256"
        }
      ],
      "name": "URI",
      "type": "event"
    },
    {
      "anonymous": false,
      "inputs": [
        {
          "indexed": false,
          "internalType": "address",
          "name": "account",
          "type": "address"
        }
      ],
      "name": "Unpaused",
      "type": "event"
    },
    {
      "inputs": [
        {
          "internalType": "address",
          "name": "account",
          "type": "address"
        },
        {
          "internalType": "uint256",
          "name": "id",
          "type": "uint256"
        }
      ],
      "name": "balanceOf",
      "outputs": [
        {
          "internalType": "uint256",
          "name": "",
          "type": "uint256"
        }
      ],
      "stateMutability": "view",
      "type": "function"
    },
    {
      "inputs": [
        {
          "internalType": "address[]",
          "name": "accounts",
          "type": "address[]"
        },
        {
          "internalType": "uint256[]",
          "name": "ids",
          "type": "uint256[]"
        }
      ],
      "name": "balanceOfBatch",
      "outputs": [
        {
          "internalType": "uint256[]",
          "name": "",
          "type": "uint256[]"
        }
      ],
      "stateMutability": "view",
      "type": "function"
    },
    {
      "inputs": [
        {
          "internalType": "address",
          "name": "account",
          "type": "address"
        },
        {
          "internalType": "address",
          "name": "operator",
          "type": "address"
        }
      ],
      "name": "isApprovedForAll",
      "outputs": [
        {
          "internalType": "bool",
          "name": "",
          "type": "bool"
        }
      ],
      "stateMutability": "view",
      "type": "function"
    },
    {
      "inputs": [],
      "name": "owner",
      "outputs": [
        {
          "internalType": "address",
          "name": "",
          "type": "address"
        }
      ],
      "stateMutability": "view",
      "type": "function"
    },
    {
      "inputs": [],
      "name": "paused",
      "outputs": [
        {
          "internalType": "bool",
          "name": "",
          "type": "bool"
        }
      ],
      "stateMutability": "view",
      "type": "function"
    },
    {
      "inputs": [],
      "name": "renounceOwnership",
      "outputs": [],
      "stateMutability": "nonpayable",
      "type": "function"
    },
    {
      "inputs": [
        {
          "internalType": "address",
          "name": "from",
          "type": "address"
        },
        {
          "internalType": "address",
          "name": "to",
          "type": "address"
        },
        {
          "internalType": "uint256[]",
          "name": "ids",
          "type": "uint256[]"
        },
        {
          "internalType": "uint256[]",
          "name": "amounts",
          "type": "uint256[]"
        },
        {
          "internalType": "bytes",
          "name": "data",
          "type": "bytes"
        }
      ],
      "name": "safeBatchTransferFrom",
      "outputs": [],
      "stateMutability": "nonpayable",
      "type": "function"
    },
    {
      "inputs": [
        {
          "internalType": "address",
          "name": "from",
          "type": "address"
        },
        {
          "internalType": "address",
          "name": "to",
          "type": "address"
        },
        {
          "internalType": "uint256",
          "name": "id",
          "type": "uint256"
        },
        {
          "internalType": "uint256",
          "name": "amount",
          "type": "uint256"
        },
        {
          "internalType": "bytes",
          "name": "data",
          "type": "bytes"
        }
      ],
      "name": "safeTransferFrom",
      "outputs": [],
      "stateMutability": "nonpayable",
      "type": "function"
    },
    {
      "inputs": [
        {
          "internalType": "address",
          "name": "operator",
          "type": "address"
        },
        {
          "internalType": "bool",
          "name": "approved",
          "type": "bool"
        }
      ],
      "name": "setApprovalForAll",
      "outputs": [],
      "stateMutability": "nonpayable",
      "type": "function"
    },
    {
      "inputs": [
        {
          "internalType": "bytes4",
          "name": "interfaceId",
          "type": "bytes4"
        }
      ],
      "name": "supportsInterface",
      "outputs": [
        {
          "internalType": "bool",
          "name": "",
          "type": "bool"
        }
      ],
      "stateMutability": "view",
      "type": "function"
    },
    {
      "inputs": [
        {
          "internalType": "address",
          "name": "newOwner",
          "type": "address"
        }
      ],
      "name": "transferOwnership",
      "outputs": [],
      "stateMutability": "nonpayable",
      "type": "function"
    },
    {
      "inputs": [
        {
          "internalType": "uint256",
          "name": "",
          "type": "uint256"
        }
      ],
      "name": "uri",
      "outputs": [
        {
          "internalType": "string",
          "name": "",
          "type": "string"
        }
      ],
      "stateMutability": "view",
      "type": "function"
    },
    {
      "inputs": [
        {
          "internalType": "string",
          "name": "baseUri",
          "type": "string"
        }
      ],
      "name": "initialize",
      "outputs": [],
      "stateMutability": "nonpayable",
      "type": "function"
    },
    {
      "inputs": [
        {
          "internalType": "uint256",
          "name": "amount",
          "type": "uint256"
        }
      ],
      "name": "mint",
      "outputs": [],
      "stateMutability": "nonpayable",
      "type": "function"
    },
    {
      "inputs": [
        {
          "internalType": "uint256",
          "name": "tokenId",
          "type": "uint256"
        },
        {
          "internalType": "string",
          "name": "_tokenURI",
          "type": "string"
        }
      ],
      "name": "setTokenURI",
      "outputs": [],
      "stateMutability": "nonpayable",
      "type": "function"
    },
    {
      "inputs": [
        {
          "internalType": "uint256",
          "name": "tokenId",
          "type": "uint256"
        }
      ],
      "name": "tokenURI",
      "outputs": [
        {
          "internalType": "string",
          "name": "",
          "type": "string"
        }
      ],
      "stateMutability": "view",
      "type": "function"
    },
    {
      "inputs": [],
      "name": "pause",
      "outputs": [],
      "stateMutability": "nonpayable",
      "type": "function"
    }
  ],
  "bytecode": "0x608060405234801561001057600080fd5b50613a48806100206000396000f3fe608060405234801561001057600080fd5b506004361061010a5760003560e01c80638456cb59116100a2578063c87b56dd11610071578063c87b56dd1461028f578063e985e9c5146102bf578063f242432a146102ef578063f2fde38b1461030b578063f62d1888146103275761010a565b80638456cb591461022f5780638da5cb5b14610239578063a0712d6814610257578063a22cb465146102735761010a565b80632eb2c2d6116100de5780632eb2c2d6146101bb5780634e1273f4146101d75780635c975abb14610207578063715018a6146102255761010a565b8062fdd58e1461010f57806301ffc9a71461013f5780630e89341c1461016f578063162094c41461019f575b600080fd5b6101296004803603810190610124919061285f565b610343565b60405161013691906134f1565b60405180910390f35b61015960048036038101906101549190612907565b61040d565b60405161016691906132b4565b60405180910390f35b6101896004803603810190610184919061299a565b6104ef565b60405161019691906132cf565b60405180910390f35b6101b960048036038101906101b491906129c3565b610583565b005b6101d560048036038101906101d091906126d5565b6105f7565b005b6101f160048036038101906101ec919061289b565b6109f0565b6040516101fe919061325b565b60405180910390f35b61020f610ba1565b60405161021c91906132b4565b60405180910390f35b61022d610bb8565b005b610237610cf5565b005b610241610d7b565b60405161024e919061317e565b60405180910390f35b610271600480360381019061026c919061299a565b610da5565b005b61028d60048036038101906102889190612823565b610e24565b005b6102a960048036038101906102a4919061299a565b610fa5565b6040516102b691906132cf565b60405180910390f35b6102d960048036038101906102d49190612699565b611094565b6040516102e691906132b4565b60405180910390f35b61030960048036038101906103049190612794565b611128565b005b61032560048036038101906103209190612670565b611443565b005b610341600480360381019061033c9190612959565b6115ef565b005b60008073ffffffffffffffffffffffffffffffffffffffff168373ffffffffffffffffffffffffffffffffffffffff1614156103b4576040517f08c379a00000000000000000000000000000000000000000000000000000000081526004016103ab90613331565b60405180910390fd5b6065600083815260200190815260200160002060008473ffffffffffffffffffffffffffffffffffffffff1673ffffffffffffffffffffffffffffffffffffffff16815260200190815260200160002054905092915050565b60007fd9b67a26000000000000000000000000000000000000000000000000000000007bffffffffffffffffffffffffffffffffffffffffffffffffffffffff1916827bffffffffffffffffffffffffffffffffffffffffffffffffffffffff191614806104d857507f0e89341c000000000000000000000000000000000000000000000000000000007bffffffffffffffffffffffffffffffffffffffffffffffffffffffff1916827bffffffffffffffffffffffffffffffffffffffffffffffffffffffff1916145b806104e857506104e7826116f2565b5b9050919050565b6060606780546104fe906137da565b80601f016020809104026020016040519081016040528092919081815260200182805461052a906137da565b80156105775780601f1061054c57610100808354040283529160200191610577565b820191906000526020600020905b81548152906001019060200180831161055a57829003601f168201915b50505050509050919050565b61058b610ba1565b156105cb576040517f08c379a00000000000000000000000000000000000000000000000000000000081526004016105c2906134d1565b60405180910390fd5b8060fc600084815260200190815260200160002090805190602001906105f2929190612368565b505050565b815183511461063b576040517f08c379a000000000000000000000000000000000000000000000000000000000815260040161063290613491565b60405180910390fd5b600073ffffffffffffffffffffffffffffffffffffffff168473ffffffffffffffffffffffffffffffffffffffff1614156106ab576040517f08c379a00000000000000000000000000000000000000000000000000000000081526004016106a2906133b1565b60405180910390fd5b6106b361175c565b73ffffffffffffffffffffffffffffffffffffffff168573ffffffffffffffffffffffffffffffffffffffff1614806106f957506106f8856106f361175c565b611094565b5b610738576040517f08c379a000000000000000000000000000000000000000000000000000000000815260040161072f906133d1565b60405180910390fd5b600061074261175c565b9050610752818787878787611764565b60005b845181101561095b576000858281518110610799577f4e487b7100000000000000000000000000000000000000000000000000000000600052603260045260246000fd5b6020026020010151905060008583815181106107de577f4e487b7100000000000000000000000000000000000000000000000000000000600052603260045260246000fd5b6020026020010151905060006065600084815260200190815260200160002060008b73ffffffffffffffffffffffffffffffffffffffff1673ffffffffffffffffffffffffffffffffffffffff16815260200190815260200160002054905081811015610880576040517f08c379a000000000000000000000000000000000000000000000000000000000815260040161087790613411565b60405180910390fd5b818161088c91906136f0565b6065600085815260200190815260200160002060008c73ffffffffffffffffffffffffffffffffffffffff1673ffffffffffffffffffffffffffffffffffffffff16815260200190815260200160002081905550816065600085815260200190815260200160002060008b73ffffffffffffffffffffffffffffffffffffffff1673ffffffffffffffffffffffffffffffffffffffff1681526020019081526020016000206000828254610940919061369a565b92505081905550505050806109549061380c565b9050610755565b508473ffffffffffffffffffffffffffffffffffffffff168673ffffffffffffffffffffffffffffffffffffffff168273ffffffffffffffffffffffffffffffffffffffff167f4a39dc06d4c0dbc64b70af90fd698a233a518aa5d07e595d983b8c0526c8f7fb87876040516109d292919061327d565b60405180910390a46109e881878787878761176c565b505050505050565b60608151835114610a36576040517f08c379a0000000000000000000000000000000000000000000000000000000008152600401610a2d90613471565b60405180910390fd5b6000835167ffffffffffffffff811115610a79577f4e487b7100000000000000000000000000000000000000000000000000000000600052604160045260246000fd5b604051908082528060200260200182016040528015610aa75781602001602082028036833780820191505090505b50905060005b8451811015610b9657610b40858281518110610af2577f4e487b7100000000000000000000000000000000000000000000000000000000600052603260045260246000fd5b6020026020010151858381518110610b33577f4e487b7100000000000000000000000000000000000000000000000000000000600052603260045260246000fd5b6020026020010151610343565b828281518110610b79577f4e487b7100000000000000000000000000000000000000000000000000000000600052603260045260246000fd5b60200260200101818152505080610b8f9061380c565b9050610aad565b508091505092915050565b6000609760009054906101000a900460ff16905090565b610bc061175c565b73ffffffffffffffffffffffffffffffffffffffff16610bde610d7b565b73ffffffffffffffffffffffffffffffffffffffff1614610c34576040517f08c379a0000000000000000000000000000000000000000000000000000000008152600401610c2b90613431565b60405180910390fd5b600073ffffffffffffffffffffffffffffffffffffffff1660c960009054906101000a900473ffffffffffffffffffffffffffffffffffffffff1673ffffffffffffffffffffffffffffffffffffffff167f8be0079c531659141344cd1fd0a4f28419497f9722a3daafe3b4186f6b6457e060405160405180910390a3600060c960006101000a81548173ffffffffffffffffffffffffffffffffffffffff021916908373ffffffffffffffffffffffffffffffffffffffff160217905550565b610cfd61175c565b73ffffffffffffffffffffffffffffffffffffffff16610d1b610d7b565b73ffffffffffffffffffffffffffffffffffffffff1614610d71576040517f08c379a0000000000000000000000000000000000000000000000000000000008152600401610d6890613431565b60405180910390fd5b610d7961193c565b565b600060c960009054906101000a900473ffffffffffffffffffffffffffffffffffffffff16905090565b610dad610ba1565b15610ded576040517f08c379a0000000000000000000000000000000000000000000000000000000008152600401610de4906134d1565b60405180910390fd5b610df760fb6119df565b6000610e0360fb6119f5565b9050610e2033828460405180602001604052806000815250611a03565b5050565b8173ffffffffffffffffffffffffffffffffffffffff16610e4361175c565b73ffffffffffffffffffffffffffffffffffffffff161415610e9a576040517f08c379a0000000000000000000000000000000000000000000000000000000008152600401610e9190613451565b60405180910390fd5b8060666000610ea761175c565b73ffffffffffffffffffffffffffffffffffffffff1673ffffffffffffffffffffffffffffffffffffffff16815260200190815260200160002060008473ffffffffffffffffffffffffffffffffffffffff1673ffffffffffffffffffffffffffffffffffffffff16815260200190815260200160002060006101000a81548160ff0219169083151502179055508173ffffffffffffffffffffffffffffffffffffffff16610f5461175c565b73ffffffffffffffffffffffffffffffffffffffff167f17307eab39ab6107e8899845ad3d59bd9653f200f220920489ca2b5937696c3183604051610f9991906132b4565b60405180910390a35050565b6060600060fc60008481526020019081526020016000208054610fc7906137da565b80601f0160208091040260200160405190810160405280929190818152602001828054610ff3906137da565b80156110405780601f1061101557610100808354040283529160200191611040565b820191906000526020600020905b81548152906001019060200180831161102357829003601f168201915b505050505090506000611052846104ef565b905060008151141561106857819250505061108f565b808260405160200161107b92919061315a565b604051602081830303815290604052925050505b919050565b6000606660008473ffffffffffffffffffffffffffffffffffffffff1673ffffffffffffffffffffffffffffffffffffffff16815260200190815260200160002060008373ffffffffffffffffffffffffffffffffffffffff1673ffffffffffffffffffffffffffffffffffffffff16815260200190815260200160002060009054906101000a900460ff16905092915050565b600073ffffffffffffffffffffffffffffffffffffffff168473ffffffffffffffffffffffffffffffffffffffff161415611198576040517f08c379a000000000000000000000000000000000000000000000000000000000815260040161118f906133b1565b60405180910390fd5b6111a061175c565b73ffffffffffffffffffffffffffffffffffffffff168573ffffffffffffffffffffffffffffffffffffffff1614806111e657506111e5856111e061175c565b611094565b5b611225576040517f08c379a000000000000000000000000000000000000000000000000000000000815260040161121c90613371565b60405180910390fd5b600061122f61175c565b905061124f81878761124088611b9a565b61124988611b9a565b87611764565b60006065600086815260200190815260200160002060008873ffffffffffffffffffffffffffffffffffffffff1673ffffffffffffffffffffffffffffffffffffffff168152602001908152602001600020549050838110156112e7576040517f08c379a00000000000000000000000000000000000000000000000000000000081526004016112de90613411565b60405180910390fd5b83816112f391906136f0565b6065600087815260200190815260200160002060008973ffffffffffffffffffffffffffffffffffffffff1673ffffffffffffffffffffffffffffffffffffffff16815260200190815260200160002081905550836065600087815260200190815260200160002060008873ffffffffffffffffffffffffffffffffffffffff1673ffffffffffffffffffffffffffffffffffffffff16815260200190815260200160002060008282546113a7919061369a565b925050819055508573ffffffffffffffffffffffffffffffffffffffff168773ffffffffffffffffffffffffffffffffffffffff168373ffffffffffffffffffffffffffffffffffffffff167fc3d58168c5ae7397731d063d5bbf3d657854427343f4c083240f7aacaa2d0f62888860405161142492919061350c565b60405180910390a461143a828888888888611c60565b50505050505050565b61144b61175c565b73ffffffffffffffffffffffffffffffffffffffff16611469610d7b565b73ffffffffffffffffffffffffffffffffffffffff16146114bf576040517f08c379a00000000000000000000000000000000000000000000000000000000081526004016114b690613431565b60405180910390fd5b600073ffffffffffffffffffffffffffffffffffffffff168173ffffffffffffffffffffffffffffffffffffffff16141561152f576040517f08c379a000000000000000000000000000000000000000000000000000000000815260040161152690613351565b60405180910390fd5b8073ffffffffffffffffffffffffffffffffffffffff1660c960009054906101000a900473ffffffffffffffffffffffffffffffffffffffff1673ffffffffffffffffffffffffffffffffffffffff167f8be0079c531659141344cd1fd0a4f28419497f9722a3daafe3b4186f6b6457e060405160405180910390a38060c960006101000a81548173ffffffffffffffffffffffffffffffffffffffff021916908373ffffffffffffffffffffffffffffffffffffffff16021790555050565b600060019054906101000a900460ff1680611615575060008054906101000a900460ff16155b611654576040517f08c379a000000000000000000000000000000000000000000000000000000000815260040161164b906133f1565b60405180910390fd5b60008060019054906101000a900460ff1615905080156116a4576001600060016101000a81548160ff02191690831515021790555060016000806101000a81548160ff0219169083151502179055505b6116ac611e30565b6116b4611f09565b6116bc611fe2565b6116c5826120d6565b6116cd6121b9565b80156116ee5760008060016101000a81548160ff0219169083151502179055505b5050565b60007f01ffc9a7000000000000000000000000000000000000000000000000000000007bffffffffffffffffffffffffffffffffffffffffffffffffffffffff1916827bffffffffffffffffffffffffffffffffffffffffffffffffffffffff1916149050919050565b600033905090565b505050505050565b61178b8473ffffffffffffffffffffffffffffffffffffffff1661233b565b15611934578373ffffffffffffffffffffffffffffffffffffffff1663bc197c8187878686866040518663ffffffff1660e01b81526004016117d1959493929190613199565b602060405180830381600087803b1580156117eb57600080fd5b505af192505050801561181c57506040513d601f19601f820116820180604052508101906118199190612930565b60015b6118ab57611828613900565b806118335750611870565b806040517f08c379a000000000000000000000000000000000000000000000000000000000815260040161186791906132cf565b60405180910390fd5b6040517f08c379a00000000000000000000000000000000000000000000000000000000081526004016118a2906132f1565b60405180910390fd5b63bc197c8160e01b7bffffffffffffffffffffffffffffffffffffffffffffffffffffffff1916817bffffffffffffffffffffffffffffffffffffffffffffffffffffffff191614611932576040517f08c379a000000000000000000000000000000000000000000000000000000000815260040161192990613311565b60405180910390fd5b505b505050505050565b611944610ba1565b15611984576040517f08c379a000000000000000000000000000000000000000000000000000000000815260040161197b90613391565b60405180910390fd5b6001609760006101000a81548160ff0219169083151502179055507f62e78cea01bee320cd4e420270b5ea74000d11b0c9f74754ebdbfc544b05a2586119c861175c565b6040516119d5919061317e565b60405180910390a1565b6001816000016000828254019250508190555050565b600081600001549050919050565b600073ffffffffffffffffffffffffffffffffffffffff168473ffffffffffffffffffffffffffffffffffffffff161415611a73576040517f08c379a0000000000000000000000000000000000000000000000000000000008152600401611a6a906134b1565b60405180910390fd5b6000611a7d61175c565b9050611a9e81600087611a8f88611b9a565b611a9888611b9a565b87611764565b826065600086815260200190815260200160002060008773ffffffffffffffffffffffffffffffffffffffff1673ffffffffffffffffffffffffffffffffffffffff1681526020019081526020016000206000828254611afe919061369a565b925050819055508473ffffffffffffffffffffffffffffffffffffffff16600073ffffffffffffffffffffffffffffffffffffffff168273ffffffffffffffffffffffffffffffffffffffff167fc3d58168c5ae7397731d063d5bbf3d657854427343f4c083240f7aacaa2d0f628787604051611b7c92919061350c565b60405180910390a4611b9381600087878787611c60565b5050505050565b60606000600167ffffffffffffffff811115611bdf577f4e487b7100000000000000000000000000000000000000000000000000000000600052604160045260246000fd5b604051908082528060200260200182016040528015611c0d5781602001602082028036833780820191505090505b5090508281600081518110611c4b577f4e487b7100000000000000000000000000000000000000000000000000000000600052603260045260246000fd5b60200260200101818152505080915050919050565b611c7f8473ffffffffffffffffffffffffffffffffffffffff1661233b565b15611e28578373ffffffffffffffffffffffffffffffffffffffff1663f23a6e6187878686866040518663ffffffff1660e01b8152600401611cc5959493929190613201565b602060405180830381600087803b158015611cdf57600080fd5b505af1925050508015611d1057506040513d601f19601f82011682018060405250810190611d0d9190612930565b60015b611d9f57611d1c613900565b80611d275750611d64565b806040517f08c379a0000000000000000000000000000000000000000000000000000000008152600401611d5b91906132cf565b60405180910390fd5b6040517f08c379a0000000000000000000000000000000000000000000000000000000008152600401611d96906132f1565b60405180910390fd5b63f23a6e6160e01b7bffffffffffffffffffffffffffffffffffffffffffffffffffffffff1916817bffffffffffffffffffffffffffffffffffffffffffffffffffffffff191614611e26576040517f08c379a0000000000000000000000000000000000000000000000000000000008152600401611e1d90613311565b60405180910390fd5b505b505050505050565b600060019054906101000a900460ff1680611e56575060008054906101000a900460ff16155b611e95576040517f08c379a0000000000000000000000000000000000000000000000000000000008152600401611e8c906133f1565b60405180910390fd5b60008060019054906101000a900460ff161590508015611ee5576001600060016101000a81548160ff02191690831515021790555060016000806101000a81548160ff0219169083151502179055505b8015611f065760008060016101000a81548160ff0219169083151502179055505b50565b600060019054906101000a900460ff1680611f2f575060008054906101000a900460ff16155b611f6e576040517f08c379a0000000000000000000000000000000000000000000000000000000008152600401611f65906133f1565b60405180910390fd5b60008060019054906101000a900460ff161590508015611fbe576001600060016101000a81548160ff02191690831515021790555060016000806101000a81548160ff0219169083151502179055505b8015611fdf5760008060016101000a81548160ff0219169083151502179055505b50565b600060019054906101000a900460ff1680612008575060008054906101000a900460ff16155b612047576040517f08c379a000000000000000000000000000000000000000000000000000000000815260040161203e906133f1565b60405180910390fd5b60008060019054906101000a900460ff161590508015612097576001600060016101000a81548160ff02191690831515021790555060016000806101000a81548160ff0219169083151502179055505b6000609760006101000a81548160ff02191690831515021790555080156120d35760008060016101000a81548160ff0219169083151502179055505b50565b600060019054906101000a900460ff16806120fc575060008054906101000a900460ff16155b61213b576040517f08c379a0000000000000000000000000000000000000000000000000000000008152600401612132906133f1565b60405180910390fd5b60008060019054906101000a900460ff16159050801561218b576001600060016101000a81548160ff02191690831515021790555060016000806101000a81548160ff0219169083151502179055505b6121948261234e565b80156121b55760008060016101000a81548160ff0219169083151502179055505b5050565b600060019054906101000a900460ff16806121df575060008054906101000a900460ff16155b61221e576040517f08c379a0000000000000000000000000000000000000000000000000000000008152600401612215906133f1565b60405180910390fd5b60008060019054906101000a900460ff16159050801561226e576001600060016101000a81548160ff02191690831515021790555060016000806101000a81548160ff0219169083151502179055505b600061227861175c565b90508060c960006101000a81548173ffffffffffffffffffffffffffffffffffffffff021916908373ffffffffffffffffffffffffffffffffffffffff1602179055508073ffffffffffffffffffffffffffffffffffffffff16600073ffffffffffffffffffffffffffffffffffffffff167f8be0079c531659141344cd1fd0a4f28419497f9722a3daafe3b4186f6b6457e060405160405180910390a35080156123385760008060016101000a81548160ff0219169083151502179055505b50565b600080823b905060008111915050919050565b8060679080519060200190612364929190612368565b5050565b828054612374906137da565b90600052602060002090601f01602090048101928261239657600085556123dd565b82601f106123af57805160ff19168380011785556123dd565b828001600101855582156123dd579182015b828111156123dc5782518255916020019190600101906123c1565b5b5090506123ea91906123ee565b5090565b5b808211156124075760008160009055506001016123ef565b5090565b600061241e61241984613566565b613535565b9050808382526020820190508285602086028201111561243d57600080fd5b60005b8581101561246d5781612453888261255f565b845260208401935060208301925050600181019050612440565b5050509392505050565b600061248a61248584613592565b613535565b905080838252602082019050828560208602820111156124a957600080fd5b60005b858110156124d957816124bf888261265b565b8452602084019350602083019250506001810190506124ac565b5050509392505050565b60006124f66124f1846135be565b613535565b90508281526020810184848401111561250e57600080fd5b612519848285613798565b509392505050565b600061253461252f846135ee565b613535565b90508281526020810184848401111561254c57600080fd5b612557848285613798565b509392505050565b60008135905061256e816139b6565b92915050565b600082601f83011261258557600080fd5b813561259584826020860161240b565b91505092915050565b600082601f8301126125af57600080fd5b81356125bf848260208601612477565b91505092915050565b6000813590506125d7816139cd565b92915050565b6000813590506125ec816139e4565b92915050565b600081519050612601816139e4565b92915050565b600082601f83011261261857600080fd5b81356126288482602086016124e3565b91505092915050565b600082601f83011261264257600080fd5b8135612652848260208601612521565b91505092915050565b60008135905061266a816139fb565b92915050565b60006020828403121561268257600080fd5b60006126908482850161255f565b91505092915050565b600080604083850312156126ac57600080fd5b60006126ba8582860161255f565b92505060206126cb8582860161255f565b9150509250929050565b600080600080600060a086880312156126ed57600080fd5b60006126fb8882890161255f565b955050602061270c8882890161255f565b945050604086013567ffffffffffffffff81111561272957600080fd5b6127358882890161259e565b935050606086013567ffffffffffffffff81111561275257600080fd5b61275e8882890161259e565b925050608086013567ffffffffffffffff81111561277b57600080fd5b61278788828901612607565b9150509295509295909350565b600080600080600060a086880312156127ac57600080fd5b60006127ba8882890161255f565b95505060206127cb8882890161255f565b94505060406127dc8882890161265b565b93505060606127ed8882890161265b565b925050608086013567ffffffffffffffff81111561280a57600080fd5b61281688828901612607565b9150509295509295909350565b6000806040838503121561283657600080fd5b60006128448582860161255f565b9250506020612855858286016125c8565b9150509250929050565b6000806040838503121561287257600080fd5b60006128808582860161255f565b92505060206128918582860161265b565b9150509250929050565b600080604083850312156128ae57600080fd5b600083013567ffffffffffffffff8111156128c857600080fd5b6128d485828601612574565b925050602083013567ffffffffffffffff8111156128f157600080fd5b6128fd8582860161259e565b9150509250929050565b60006020828403121561291957600080fd5b6000612927848285016125dd565b91505092915050565b60006020828403121561294257600080fd5b6000612950848285016125f2565b91505092915050565b60006020828403121561296b57600080fd5b600082013567ffffffffffffffff81111561298557600080fd5b61299184828501612631565b91505092915050565b6000602082840312156129ac57600080fd5b60006129ba8482850161265b565b91505092915050565b600080604083850312156129d657600080fd5b60006129e48582860161265b565b925050602083013567ffffffffffffffff811115612a0157600080fd5b612a0d85828601612631565b9150509250929050565b6000612a23838361313c565b60208301905092915050565b612a3881613724565b82525050565b6000612a498261362e565b612a53818561365c565b9350612a5e8361361e565b8060005b83811015612a8f578151612a768882612a17565b9750612a818361364f565b925050600181019050612a62565b5085935050505092915050565b612aa581613736565b82525050565b6000612ab682613639565b612ac0818561366d565b9350612ad08185602086016137a7565b612ad9816138e2565b840191505092915050565b6000612aef82613644565b612af9818561367e565b9350612b098185602086016137a7565b612b12816138e2565b840191505092915050565b6000612b2882613644565b612b32818561368f565b9350612b428185602086016137a7565b80840191505092915050565b6000612b5b60348361367e565b91507f455243313135353a207472616e7366657220746f206e6f6e204552433131353560008301527f526563656976657220696d706c656d656e7465720000000000000000000000006020830152604082019050919050565b6000612bc160288361367e565b91507f455243313135353a204552433131353552656365697665722072656a6563746560008301527f6420746f6b656e730000000000000000000000000000000000000000000000006020830152604082019050919050565b6000612c27602b8361367e565b91507f455243313135353a2062616c616e636520717565727920666f7220746865207a60008301527f65726f20616464726573730000000000000000000000000000000000000000006020830152604082019050919050565b6000612c8d60268361367e565b91507f4f776e61626c653a206e6577206f776e657220697320746865207a65726f206160008301527f64647265737300000000000000000000000000000000000000000000000000006020830152604082019050919050565b6000612cf360298361367e565b91507f455243313135353a2063616c6c6572206973206e6f74206f776e6572206e6f7260008301527f20617070726f76656400000000000000000000000000000000000000000000006020830152604082019050919050565b6000612d5960108361367e565b91507f5061757361626c653a20706175736564000000000000000000000000000000006000830152602082019050919050565b6000612d9960258361367e565b91507f455243313135353a207472616e7366657220746f20746865207a65726f20616460008301527f64726573730000000000000000000000000000000000000000000000000000006020830152604082019050919050565b6000612dff60328361367e565b91507f455243313135353a207472616e736665722063616c6c6572206973206e6f742060008301527f6f776e6572206e6f7220617070726f76656400000000000000000000000000006020830152604082019050919050565b6000612e65602e8361367e565b91507f496e697469616c697a61626c653a20636f6e747261637420697320616c72656160008301527f647920696e697469616c697a65640000000000000000000000000000000000006020830152604082019050919050565b6000612ecb602a8361367e565b91507f455243313135353a20696e73756666696369656e742062616c616e636520666f60008301527f72207472616e73666572000000000000000000000000000000000000000000006020830152604082019050919050565b6000612f3160208361367e565b91507f4f776e61626c653a2063616c6c6572206973206e6f7420746865206f776e65726000830152602082019050919050565b6000612f7160298361367e565b91507f455243313135353a2073657474696e6720617070726f76616c2073746174757360008301527f20666f722073656c6600000000000000000000000000000000000000000000006020830152604082019050919050565b6000612fd760298361367e565b91507f455243313135353a206163636f756e747320616e6420696473206c656e67746860008301527f206d69736d6174636800000000000000000000000000000000000000000000006020830152604082019050919050565b600061303d60288361367e565b91507f455243313135353a2069647320616e6420616d6f756e7473206c656e6774682060008301527f6d69736d617463680000000000000000000000000000000000000000000000006020830152604082019050919050565b60006130a360218361367e565b91507f455243313135353a206d696e7420746f20746865207a65726f2061646472657360008301527f73000000000000000000000000000000000000000000000000000000000000006020830152604082019050919050565b600061310960188361367e565b91507f4e6f7420616c6c6f776564207768696c652070617573656400000000000000006000830152602082019050919050565b6131458161378e565b82525050565b6131548161378e565b82525050565b60006131668285612b1d565b91506131728284612b1d565b91508190509392505050565b60006020820190506131936000830184612a2f565b92915050565b600060a0820190506131ae6000830188612a2f565b6131bb6020830187612a2f565b81810360408301526131cd8186612a3e565b905081810360608301526131e18185612a3e565b905081810360808301526131f58184612aab565b90509695505050505050565b600060a0820190506132166000830188612a2f565b6132236020830187612a2f565b613230604083018661314b565b61323d606083018561314b565b818103608083015261324f8184612aab565b90509695505050505050565b600060208201905081810360008301526132758184612a3e565b905092915050565b600060408201905081810360008301526132978185612a3e565b905081810360208301526132ab8184612a3e565b90509392505050565b60006020820190506132c96000830184612a9c565b92915050565b600060208201905081810360008301526132e98184612ae4565b905092915050565b6000602082019050818103600083015261330a81612b4e565b9050919050565b6000602082019050818103600083015261332a81612bb4565b9050919050565b6000602082019050818103600083015261334a81612c1a565b9050919050565b6000602082019050818103600083015261336a81612c80565b9050919050565b6000602082019050818103600083015261338a81612ce6565b9050919050565b600060208201905081810360008301526133aa81612d4c565b9050919050565b600060208201905081810360008301526133ca81612d8c565b9050919050565b600060208201905081810360008301526133ea81612df2565b9050919050565b6000602082019050818103600083015261340a81612e58565b9050919050565b6000602082019050818103600083015261342a81612ebe565b9050919050565b6000602082019050818103600083015261344a81612f24565b9050919050565b6000602082019050818103600083015261346a81612f64565b9050919050565b6000602082019050818103600083015261348a81612fca565b9050919050565b600060208201905081810360008301526134aa81613030565b9050919050565b600060208201905081810360008301526134ca81613096565b9050919050565b600060208201905081810360008301526134ea816130fc565b9050919050565b6000602082019050613506600083018461314b565b92915050565b6000604082019050613521600083018561314b565b61352e602083018461314b565b9392505050565b6000604051905081810181811067ffffffffffffffff8211171561355c5761355b6138b3565b5b8060405250919050565b600067ffffffffffffffff821115613581576135806138b3565b5b602082029050602081019050919050565b600067ffffffffffffffff8211156135ad576135ac6138b3565b5b602082029050602081019050919050565b600067ffffffffffffffff8211156135d9576135d86138b3565b5b601f19601f8301169050602081019050919050565b600067ffffffffffffffff821115613609576136086138b3565b5b601f19601f8301169050602081019050919050565b6000819050602082019050919050565b600081519050919050565b600081519050919050565b600081519050919050565b6000602082019050919050565b600082825260208201905092915050565b600082825260208201905092915050565b600082825260208201905092915050565b600081905092915050565b60006136a58261378e565b91506136b08361378e565b9250827fffffffffffffffffffffffffffffffffffffffffffffffffffffffffffffffff038211156136e5576136e4613855565b5b828201905092915050565b60006136fb8261378e565b91506137068361378e565b92508282101561371957613718613855565b5b828203905092915050565b600061372f8261376e565b9050919050565b60008115159050919050565b60007fffffffff0000000000000000000000000000000000000000000000000000000082169050919050565b600073ffffffffffffffffffffffffffffffffffffffff82169050919050565b6000819050919050565b82818337600083830152505050565b60005b838110156137c55780820151818401526020810190506137aa565b838111156137d4576000848401525b50505050565b600060028204905060018216806137f257607f821691505b6020821081141561380657613805613884565b5b50919050565b60006138178261378e565b91507fffffffffffffffffffffffffffffffffffffffffffffffffffffffffffffffff82141561384a57613849613855565b5b600182019050919050565b7f4e487b7100000000000000000000000000000000000000000000000000000000600052601160045260246000fd5b7f4e487b7100000000000000000000000000000000000000000000000000000000600052602260045260246000fd5b7f4e487b7100000000000000000000000000000000000000000000000000000000600052604160045260246000fd5b6000601f19601f8301169050919050565b60008160e01c9050919050565b600060443d1015613910576139b3565b60046000803e6139216000516138f3565b6308c379a0811461393257506139b3565b60405160043d036004823e80513d602482011167ffffffffffffffff8211171561395e575050506139b3565b808201805167ffffffffffffffff81111561397d5750505050506139b3565b8060208301013d8501811115613998575050505050506139b3565b6139a1826138e2565b60208401016040528296505050505050505b90565b6139bf81613724565b81146139ca57600080fd5b50565b6139d681613736565b81146139e157600080fd5b50565b6139ed81613742565b81146139f857600080fd5b50565b613a048161378e565b8114613a0f57600080fd5b5056fea2646970667358221220c934cc2ec5403ec0211eaeef09dc96ba6c97e916b62913d83225dc09fb7bd05064736f6c63430008000033",
  "immutableReferences": {},
  "source": "// SPDX-License-Identifier: MIT\n\npragma solidity ^0.8.0;\n\nimport \"@openzeppelin/contracts-upgradeable/token/ERC1155/ERC1155Upgradeable.sol\";\nimport \"@openzeppelin/contracts-upgradeable/security/PausableUpgradeable.sol\";\nimport \"@openzeppelin/contracts-upgradeable/proxy/utils/Initializable.sol\";\nimport \"@openzeppelin/contracts-upgradeable/utils/CountersUpgradeable.sol\";\nimport \"@openzeppelin/contracts-upgradeable/access/OwnableUpgradeable.sol\";\n\ncontract MoonwolfPoc is\n    Initializable,\n    ERC1155Upgradeable,\n    PausableUpgradeable,\n    OwnableUpgradeable\n{\n    using CountersUpgradeable for CountersUpgradeable.Counter;\n\n    CountersUpgradeable.Counter private _ids;\n    mapping(uint256 => string) private _tokenURIs;\n\n    function initialize(string memory baseUri) public initializer {\n        __Context_init_unchained();\n        __ERC165_init_unchained();\n        __Pausable_init_unchained();\n        __ERC1155_init_unchained(baseUri);\n        __Ownable_init_unchained();\n    }\n\n    function mint(uint256 amount) external {\n        require(!paused(), \"Not allowed while paused\");\n        _ids.increment();\n        uint256 newItemId = _ids.current();\n        _mint(msg.sender, newItemId, amount, \"\");\n    }\n\n    function setTokenURI(uint256 tokenId, string memory _tokenURI) external {\n        require(!paused(), \"Not allowed while paused\");\n        _tokenURIs[tokenId] = _tokenURI;\n    }\n\n    function tokenURI(uint256 tokenId) public view returns (string memory) {\n        string memory _tokenURI = _tokenURIs[tokenId];\n\n        // ERC1155 returns the same URI for *all* token types regardless of the tokenId.\n        string memory base = uri(tokenId);\n\n        // If there is no base URI, return the token URI.\n        if (bytes(base).length == 0) {\n            return _tokenURI;\n        }\n        // If both are set, concatenate the baseURI and tokenURI (via abi.encodePacked).\n        return string(abi.encodePacked(base, _tokenURI));\n    }\n\n    function pause() public onlyOwner() {\n        _pause();\n    }\n}\n",
  "sourcePath": "/Users/szabolcs/Documents/Personal/Szakmai/Ethereum/moonwolf.io-poc/contracts/MoonwolfPoc.sol",
  "compiler": {
    "name": "solc",
    "version": "0.8.0+commit.c7dfd78e.Emscripten.clang"
  },
  "schemaVersion": "3.3.4",
  "updatedAt": "2021-04-24T10:29:05.816Z",
  "devdoc": {
    "kind": "dev",
    "methods": {
      "balanceOf(address,uint256)": {
        "details": "See {IERC1155-balanceOf}. Requirements: - `account` cannot be the zero address."
      },
      "balanceOfBatch(address[],uint256[])": {
        "details": "See {IERC1155-balanceOfBatch}. Requirements: - `accounts` and `ids` must have the same length."
      },
      "isApprovedForAll(address,address)": {
        "details": "See {IERC1155-isApprovedForAll}."
      },
      "owner()": {
        "details": "Returns the address of the current owner."
      },
      "paused()": {
        "details": "Returns true if the contract is paused, and false otherwise."
      },
      "renounceOwnership()": {
        "details": "Leaves the contract without owner. It will not be possible to call `onlyOwner` functions anymore. Can only be called by the current owner. NOTE: Renouncing ownership will leave the contract without an owner, thereby removing any functionality that is only available to the owner."
      },
      "safeBatchTransferFrom(address,address,uint256[],uint256[],bytes)": {
        "details": "See {IERC1155-safeBatchTransferFrom}."
      },
      "safeTransferFrom(address,address,uint256,uint256,bytes)": {
        "details": "See {IERC1155-safeTransferFrom}."
      },
      "setApprovalForAll(address,bool)": {
        "details": "See {IERC1155-setApprovalForAll}."
      },
      "supportsInterface(bytes4)": {
        "details": "See {IERC165-supportsInterface}."
      },
      "transferOwnership(address)": {
        "details": "Transfers ownership of the contract to a new account (`newOwner`). Can only be called by the current owner."
      },
      "uri(uint256)": {
        "details": "See {IERC1155MetadataURI-uri}. This implementation returns the same URI for *all* token types. It relies on the token type ID substitution mechanism https://eips.ethereum.org/EIPS/eip-1155#metadata[defined in the EIP]. Clients calling this function must replace the `\\{id\\}` substring with the actual token type ID."
      }
    },
    "version": 1
  },
  "userdoc": {
    "kind": "user",
    "methods": {},
    "version": 1
  }
}