{
  "contractName": "MoonwolfNFT",
  "abi": [
    {
      "inputs": [],
      "stateMutability": "nonpayable",
      "type": "constructor"
    },
    {
      "anonymous": false,
      "inputs": [
        {
          "indexed": true,
          "internalType": "address",
          "name": "owner",
          "type": "address"
        },
        {
          "indexed": true,
          "internalType": "address",
          "name": "approved",
          "type": "address"
        },
        {
          "indexed": true,
          "internalType": "uint256",
          "name": "tokenId",
          "type": "uint256"
        }
      ],
      "name": "Approval",
      "type": "event"
    },
    {
      "anonymous": false,
      "inputs": [
        {
          "indexed": true,
          "internalType": "address",
          "name": "owner",
          "type": "address"
        },
        {
          "indexed": true,
          "internalType": "address",
          "name": "operator",
          "type": "address"
        },
        {
          "indexed": false,
          "internalType": "bool",
          "name": "approved",
          "type": "bool"
        }
      ],
      "name": "ApprovalForAll",
      "type": "event"
    },
    {
      "anonymous": false,
      "inputs": [
        {
          "indexed": true,
          "internalType": "address",
          "name": "previousOwner",
          "type": "address"
        },
        {
          "indexed": true,
          "internalType": "address",
          "name": "newOwner",
          "type": "address"
        }
      ],
      "name": "OwnershipTransferred",
      "type": "event"
    },
    {
      "anonymous": false,
      "inputs": [
        {
          "indexed": false,
          "internalType": "address",
          "name": "account",
          "type": "address"
        }
      ],
      "name": "Paused",
      "type": "event"
    },
    {
      "anonymous": false,
      "inputs": [
        {
          "indexed": true,
          "internalType": "address",
          "name": "from",
          "type": "address"
        },
        {
          "indexed": true,
          "internalType": "address",
          "name": "to",
          "type": "address"
        },
        {
          "indexed": true,
          "internalType": "uint256",
          "name": "tokenId",
          "type": "uint256"
        }
      ],
      "name": "Transfer",
      "type": "event"
    },
    {
      "anonymous": false,
      "inputs": [
        {
          "indexed": false,
          "internalType": "address",
          "name": "account",
          "type": "address"
        }
      ],
      "name": "Unpaused",
      "type": "event"
    },
    {
      "inputs": [
        {
          "internalType": "address",
          "name": "to",
          "type": "address"
        },
        {
          "internalType": "uint256",
          "name": "tokenId",
          "type": "uint256"
        }
      ],
      "name": "approve",
      "outputs": [],
      "stateMutability": "nonpayable",
      "type": "function"
    },
    {
      "inputs": [
        {
          "internalType": "address",
          "name": "owner",
          "type": "address"
        }
      ],
      "name": "balanceOf",
      "outputs": [
        {
          "internalType": "uint256",
          "name": "",
          "type": "uint256"
        }
      ],
      "stateMutability": "view",
      "type": "function",
      "constant": true
    },
    {
      "inputs": [
        {
          "internalType": "uint256",
          "name": "tokenId",
          "type": "uint256"
        }
      ],
      "name": "getApproved",
      "outputs": [
        {
          "internalType": "address",
          "name": "",
          "type": "address"
        }
      ],
      "stateMutability": "view",
      "type": "function",
      "constant": true
    },
    {
      "inputs": [
        {
          "internalType": "address",
          "name": "owner",
          "type": "address"
        },
        {
          "internalType": "address",
          "name": "operator",
          "type": "address"
        }
      ],
      "name": "isApprovedForAll",
      "outputs": [
        {
          "internalType": "bool",
          "name": "",
          "type": "bool"
        }
      ],
      "stateMutability": "view",
      "type": "function",
      "constant": true
    },
    {
      "inputs": [],
      "name": "name",
      "outputs": [
        {
          "internalType": "string",
          "name": "",
          "type": "string"
        }
      ],
      "stateMutability": "view",
      "type": "function",
      "constant": true
    },
    {
      "inputs": [],
      "name": "owner",
      "outputs": [
        {
          "internalType": "address",
          "name": "",
          "type": "address"
        }
      ],
      "stateMutability": "view",
      "type": "function",
      "constant": true
    },
    {
      "inputs": [
        {
          "internalType": "uint256",
          "name": "tokenId",
          "type": "uint256"
        }
      ],
      "name": "ownerOf",
      "outputs": [
        {
          "internalType": "address",
          "name": "",
          "type": "address"
        }
      ],
      "stateMutability": "view",
      "type": "function",
      "constant": true
    },
    {
      "inputs": [],
      "name": "paused",
      "outputs": [
        {
          "internalType": "bool",
          "name": "",
          "type": "bool"
        }
      ],
      "stateMutability": "view",
      "type": "function",
      "constant": true
    },
    {
      "inputs": [],
      "name": "renounceOwnership",
      "outputs": [],
      "stateMutability": "nonpayable",
      "type": "function"
    },
    {
      "inputs": [
        {
          "internalType": "address",
          "name": "from",
          "type": "address"
        },
        {
          "internalType": "address",
          "name": "to",
          "type": "address"
        },
        {
          "internalType": "uint256",
          "name": "tokenId",
          "type": "uint256"
        }
      ],
      "name": "safeTransferFrom",
      "outputs": [],
      "stateMutability": "nonpayable",
      "type": "function"
    },
    {
      "inputs": [
        {
          "internalType": "address",
          "name": "from",
          "type": "address"
        },
        {
          "internalType": "address",
          "name": "to",
          "type": "address"
        },
        {
          "internalType": "uint256",
          "name": "tokenId",
          "type": "uint256"
        },
        {
          "internalType": "bytes",
          "name": "_data",
          "type": "bytes"
        }
      ],
      "name": "safeTransferFrom",
      "outputs": [],
      "stateMutability": "nonpayable",
      "type": "function"
    },
    {
      "inputs": [
        {
          "internalType": "address",
          "name": "operator",
          "type": "address"
        },
        {
          "internalType": "bool",
          "name": "approved",
          "type": "bool"
        }
      ],
      "name": "setApprovalForAll",
      "outputs": [],
      "stateMutability": "nonpayable",
      "type": "function"
    },
    {
      "inputs": [],
      "name": "symbol",
      "outputs": [
        {
          "internalType": "string",
          "name": "",
          "type": "string"
        }
      ],
      "stateMutability": "view",
      "type": "function",
      "constant": true
    },
    {
      "inputs": [
        {
          "internalType": "uint256",
          "name": "index",
          "type": "uint256"
        }
      ],
      "name": "tokenByIndex",
      "outputs": [
        {
          "internalType": "uint256",
          "name": "",
          "type": "uint256"
        }
      ],
      "stateMutability": "view",
      "type": "function",
      "constant": true
    },
    {
      "inputs": [
        {
          "internalType": "address",
          "name": "owner",
          "type": "address"
        },
        {
          "internalType": "uint256",
          "name": "index",
          "type": "uint256"
        }
      ],
      "name": "tokenOfOwnerByIndex",
      "outputs": [
        {
          "internalType": "uint256",
          "name": "",
          "type": "uint256"
        }
      ],
      "stateMutability": "view",
      "type": "function",
      "constant": true
    },
    {
      "inputs": [],
      "name": "totalSupply",
      "outputs": [
        {
          "internalType": "uint256",
          "name": "",
          "type": "uint256"
        }
      ],
      "stateMutability": "view",
      "type": "function",
      "constant": true
    },
    {
      "inputs": [
        {
          "internalType": "address",
          "name": "from",
          "type": "address"
        },
        {
          "internalType": "address",
          "name": "to",
          "type": "address"
        },
        {
          "internalType": "uint256",
          "name": "tokenId",
          "type": "uint256"
        }
      ],
      "name": "transferFrom",
      "outputs": [],
      "stateMutability": "nonpayable",
      "type": "function"
    },
    {
      "inputs": [
        {
          "internalType": "address",
          "name": "newOwner",
          "type": "address"
        }
      ],
      "name": "transferOwnership",
      "outputs": [],
      "stateMutability": "nonpayable",
      "type": "function"
    },
    {
      "inputs": [],
      "name": "pause",
      "outputs": [],
      "stateMutability": "nonpayable",
      "type": "function"
    },
    {
      "inputs": [],
      "name": "unpause",
      "outputs": [],
      "stateMutability": "nonpayable",
      "type": "function"
    },
    {
      "inputs": [
        {
          "internalType": "address",
          "name": "to",
          "type": "address"
        },
        {
          "internalType": "string",
          "name": "tokenURL",
          "type": "string"
        }
      ],
      "name": "mint",
      "outputs": [],
      "stateMutability": "nonpayable",
      "type": "function"
    },
    {
      "inputs": [
        {
          "internalType": "uint256",
          "name": "tokenId",
          "type": "uint256"
        }
      ],
      "name": "tokenURI",
      "outputs": [
        {
          "internalType": "string",
          "name": "",
          "type": "string"
        }
      ],
      "stateMutability": "view",
      "type": "function",
      "constant": true
    },
    {
      "inputs": [
        {
          "internalType": "bytes4",
          "name": "interfaceId",
          "type": "bytes4"
        }
      ],
      "name": "supportsInterface",
      "outputs": [
        {
          "internalType": "bool",
          "name": "",
          "type": "bool"
        }
      ],
      "stateMutability": "view",
      "type": "function",
      "constant": true
    }
  ],
  "bytecode": "0x60806040523480156200001157600080fd5b506040518060400160405280600c81526020017f4d6f6f6e776f6c66204e465400000000000000000000000000000000000000008152506040518060400160405280600481526020017f4d4e4654000000000000000000000000000000000000000000000000000000008152508160009080519060200190620000969291906200018c565b508060019080519060200190620000af9291906200018c565b5050506000600b60006101000a81548160ff0219169083151502179055506000620000df6200018460201b60201c565b905080600b60016101000a81548173ffffffffffffffffffffffffffffffffffffffff021916908373ffffffffffffffffffffffffffffffffffffffff1602179055508073ffffffffffffffffffffffffffffffffffffffff16600073ffffffffffffffffffffffffffffffffffffffff167f8be0079c531659141344cd1fd0a4f28419497f9722a3daafe3b4186f6b6457e060405160405180910390a350620002a1565b600033905090565b8280546200019a906200023c565b90600052602060002090601f016020900481019282620001be57600085556200020a565b82601f10620001d957805160ff19168380011785556200020a565b828001600101855582156200020a579182015b8281111562000209578251825591602001919060010190620001ec565b5b5090506200021991906200021d565b5090565b5b80821115620002385760008160009055506001016200021e565b5090565b600060028204905060018216806200025557607f821691505b602082108114156200026c576200026b62000272565b5b50919050565b7f4e487b7100000000000000000000000000000000000000000000000000000000600052602260045260246000fd5b613bae80620002b16000396000f3fe608060405234801561001057600080fd5b506004361061014d5760003560e01c80636352211e116100c3578063a22cb4651161007c578063a22cb4651461037a578063b88d4fde14610396578063c87b56dd146103b2578063d0def521146103e2578063e985e9c5146103fe578063f2fde38b1461042e5761014d565b80636352211e146102ca57806370a08231146102fa578063715018a61461032a5780638456cb59146103345780638da5cb5b1461033e57806395d89b411461035c5761014d565b806323b872dd1161011557806323b872dd1461020a5780632f745c59146102265780633f4ba83a1461025657806342842e0e146102605780634f6ccce71461027c5780635c975abb146102ac5761014d565b806301ffc9a71461015257806306fdde0314610182578063081812fc146101a0578063095ea7b3146101d057806318160ddd146101ec575b600080fd5b61016c60048036038101906101679190612a90565b61044a565b6040516101799190613446565b60405180910390f35b61018a61045c565b6040516101979190613461565b60405180910390f35b6101ba60048036038101906101b59190612ae2565b6104ee565b6040516101c791906133df565b60405180910390f35b6101ea60048036038101906101e59190612a54565b610573565b005b6101f461068b565b6040516102019190613743565b60405180910390f35b610224600480360381019061021f91906128fa565b610698565b005b610240600480360381019061023b9190612a54565b6106f8565b60405161024d9190613743565b60405180910390f35b61025e61079d565b005b61027a600480360381019061027591906128fa565b610823565b005b61029660048036038101906102919190612ae2565b610843565b6040516102a39190613743565b60405180910390f35b6102b46108da565b6040516102c19190613446565b60405180910390f35b6102e460048036038101906102df9190612ae2565b6108f1565b6040516102f191906133df565b60405180910390f35b610314600480360381019061030f9190612895565b6109a3565b6040516103219190613743565b60405180910390f35b610332610a5b565b005b61033c610b98565b005b610346610c1e565b60405161035391906133df565b60405180910390f35b610364610c48565b6040516103719190613461565b60405180910390f35b610394600480360381019061038f91906129c4565b610cda565b005b6103b060048036038101906103ab9190612949565b610e5b565b005b6103cc60048036038101906103c79190612ae2565b610ebd565b6040516103d99190613461565b60405180910390f35b6103fc60048036038101906103f79190612a00565b610ecf565b005b610418600480360381019061041391906128be565b610f7c565b6040516104259190613446565b60405180910390f35b61044860048036038101906104439190612895565b611010565b005b6000610455826111bc565b9050919050565b60606000805461046b906139a3565b80601f0160208091040260200160405190810160405280929190818152602001828054610497906139a3565b80156104e45780601f106104b9576101008083540402835291602001916104e4565b820191906000526020600020905b8154815290600101906020018083116104c757829003601f168201915b5050505050905090565b60006104f982611236565b610538576040517f08c379a000000000000000000000000000000000000000000000000000000000815260040161052f90613663565b60405180910390fd5b6004600083815260200190815260200160002060009054906101000a900473ffffffffffffffffffffffffffffffffffffffff169050919050565b600061057e826108f1565b90508073ffffffffffffffffffffffffffffffffffffffff168373ffffffffffffffffffffffffffffffffffffffff1614156105ef576040517f08c379a00000000000000000000000000000000000000000000000000000000081526004016105e6906136e3565b60405180910390fd5b8073ffffffffffffffffffffffffffffffffffffffff1661060e6112a2565b73ffffffffffffffffffffffffffffffffffffffff16148061063d575061063c816106376112a2565b610f7c565b5b61067c576040517f08c379a0000000000000000000000000000000000000000000000000000000008152600401610673906135a3565b60405180910390fd5b61068683836112aa565b505050565b6000600880549050905090565b6106a96106a36112a2565b82611363565b6106e8576040517f08c379a00000000000000000000000000000000000000000000000000000000081526004016106df90613703565b60405180910390fd5b6106f3838383611441565b505050565b6000610703836109a3565b8210610744576040517f08c379a000000000000000000000000000000000000000000000000000000000815260040161073b906134a3565b60405180910390fd5b600660008473ffffffffffffffffffffffffffffffffffffffff1673ffffffffffffffffffffffffffffffffffffffff168152602001908152602001600020600083815260200190815260200160002054905092915050565b6107a56112a2565b73ffffffffffffffffffffffffffffffffffffffff166107c3610c1e565b73ffffffffffffffffffffffffffffffffffffffff1614610819576040517f08c379a000000000000000000000000000000000000000000000000000000000815260040161081090613683565b60405180910390fd5b61082161169d565b565b61083e83838360405180602001604052806000815250610e5b565b505050565b600061084d61068b565b821061088e576040517f08c379a000000000000000000000000000000000000000000000000000000000815260040161088590613723565b60405180910390fd5b600882815481106108c8577f4e487b7100000000000000000000000000000000000000000000000000000000600052603260045260246000fd5b90600052602060002001549050919050565b6000600b60009054906101000a900460ff16905090565b6000806002600084815260200190815260200160002060009054906101000a900473ffffffffffffffffffffffffffffffffffffffff169050600073ffffffffffffffffffffffffffffffffffffffff168173ffffffffffffffffffffffffffffffffffffffff16141561099a576040517f08c379a0000000000000000000000000000000000000000000000000000000008152600401610991906135e3565b60405180910390fd5b80915050919050565b60008073ffffffffffffffffffffffffffffffffffffffff168273ffffffffffffffffffffffffffffffffffffffff161415610a14576040517f08c379a0000000000000000000000000000000000000000000000000000000008152600401610a0b906135c3565b60405180910390fd5b600360008373ffffffffffffffffffffffffffffffffffffffff1673ffffffffffffffffffffffffffffffffffffffff168152602001908152602001600020549050919050565b610a636112a2565b73ffffffffffffffffffffffffffffffffffffffff16610a81610c1e565b73ffffffffffffffffffffffffffffffffffffffff1614610ad7576040517f08c379a0000000000000000000000000000000000000000000000000000000008152600401610ace90613683565b60405180910390fd5b600073ffffffffffffffffffffffffffffffffffffffff16600b60019054906101000a900473ffffffffffffffffffffffffffffffffffffffff1673ffffffffffffffffffffffffffffffffffffffff167f8be0079c531659141344cd1fd0a4f28419497f9722a3daafe3b4186f6b6457e060405160405180910390a36000600b60016101000a81548173ffffffffffffffffffffffffffffffffffffffff021916908373ffffffffffffffffffffffffffffffffffffffff160217905550565b610ba06112a2565b73ffffffffffffffffffffffffffffffffffffffff16610bbe610c1e565b73ffffffffffffffffffffffffffffffffffffffff1614610c14576040517f08c379a0000000000000000000000000000000000000000000000000000000008152600401610c0b90613683565b60405180910390fd5b610c1c61173f565b565b6000600b60019054906101000a900473ffffffffffffffffffffffffffffffffffffffff16905090565b606060018054610c57906139a3565b80601f0160208091040260200160405190810160405280929190818152602001828054610c83906139a3565b8015610cd05780601f10610ca557610100808354040283529160200191610cd0565b820191906000526020600020905b815481529060010190602001808311610cb357829003601f168201915b5050505050905090565b610ce26112a2565b73ffffffffffffffffffffffffffffffffffffffff168273ffffffffffffffffffffffffffffffffffffffff161415610d50576040517f08c379a0000000000000000000000000000000000000000000000000000000008152600401610d4790613543565b60405180910390fd5b8060056000610d5d6112a2565b73ffffffffffffffffffffffffffffffffffffffff1673ffffffffffffffffffffffffffffffffffffffff16815260200190815260200160002060008473ffffffffffffffffffffffffffffffffffffffff1673ffffffffffffffffffffffffffffffffffffffff16815260200190815260200160002060006101000a81548160ff0219169083151502179055508173ffffffffffffffffffffffffffffffffffffffff16610e0a6112a2565b73ffffffffffffffffffffffffffffffffffffffff167f17307eab39ab6107e8899845ad3d59bd9653f200f220920489ca2b5937696c3183604051610e4f9190613446565b60405180910390a35050565b610e6c610e666112a2565b83611363565b610eab576040517f08c379a0000000000000000000000000000000000000000000000000000000008152600401610ea290613703565b60405180910390fd5b610eb7848484846117e2565b50505050565b6060610ec88261183e565b9050919050565b610ed76112a2565b73ffffffffffffffffffffffffffffffffffffffff16610ef5610c1e565b73ffffffffffffffffffffffffffffffffffffffff1614610f4b576040517f08c379a0000000000000000000000000000000000000000000000000000000008152600401610f4290613683565b60405180910390fd5b610f55600c611990565b6000610f61600c6119a6565b9050610f6d83826119b4565b610f7781836119d2565b505050565b6000600560008473ffffffffffffffffffffffffffffffffffffffff1673ffffffffffffffffffffffffffffffffffffffff16815260200190815260200160002060008373ffffffffffffffffffffffffffffffffffffffff1673ffffffffffffffffffffffffffffffffffffffff16815260200190815260200160002060009054906101000a900460ff16905092915050565b6110186112a2565b73ffffffffffffffffffffffffffffffffffffffff16611036610c1e565b73ffffffffffffffffffffffffffffffffffffffff161461108c576040517f08c379a000000000000000000000000000000000000000000000000000000000815260040161108390613683565b60405180910390fd5b600073ffffffffffffffffffffffffffffffffffffffff168173ffffffffffffffffffffffffffffffffffffffff1614156110fc576040517f08c379a00000000000000000000000000000000000000000000000000000000081526004016110f3906134e3565b60405180910390fd5b8073ffffffffffffffffffffffffffffffffffffffff16600b60019054906101000a900473ffffffffffffffffffffffffffffffffffffffff1673ffffffffffffffffffffffffffffffffffffffff167f8be0079c531659141344cd1fd0a4f28419497f9722a3daafe3b4186f6b6457e060405160405180910390a380600b60016101000a81548173ffffffffffffffffffffffffffffffffffffffff021916908373ffffffffffffffffffffffffffffffffffffffff16021790555050565b60007f780e9d63000000000000000000000000000000000000000000000000000000007bffffffffffffffffffffffffffffffffffffffffffffffffffffffff1916827bffffffffffffffffffffffffffffffffffffffffffffffffffffffff1916148061122f575061122e82611a46565b5b9050919050565b60008073ffffffffffffffffffffffffffffffffffffffff166002600084815260200190815260200160002060009054906101000a900473ffffffffffffffffffffffffffffffffffffffff1673ffffffffffffffffffffffffffffffffffffffff1614159050919050565b600033905090565b816004600083815260200190815260200160002060006101000a81548173ffffffffffffffffffffffffffffffffffffffff021916908373ffffffffffffffffffffffffffffffffffffffff160217905550808273ffffffffffffffffffffffffffffffffffffffff1661131d836108f1565b73ffffffffffffffffffffffffffffffffffffffff167f8c5be1e5ebec7d5bd14f71427d1e84f3dd0314c0f7b2291e5b200ac8c7c3b92560405160405180910390a45050565b600061136e82611236565b6113ad576040517f08c379a00000000000000000000000000000000000000000000000000000000081526004016113a490613563565b60405180910390fd5b60006113b8836108f1565b90508073ffffffffffffffffffffffffffffffffffffffff168473ffffffffffffffffffffffffffffffffffffffff16148061142757508373ffffffffffffffffffffffffffffffffffffffff1661140f846104ee565b73ffffffffffffffffffffffffffffffffffffffff16145b8061143857506114378185610f7c565b5b91505092915050565b8273ffffffffffffffffffffffffffffffffffffffff16611461826108f1565b73ffffffffffffffffffffffffffffffffffffffff16146114b7576040517f08c379a00000000000000000000000000000000000000000000000000000000081526004016114ae906136a3565b60405180910390fd5b600073ffffffffffffffffffffffffffffffffffffffff168273ffffffffffffffffffffffffffffffffffffffff161415611527576040517f08c379a000000000000000000000000000000000000000000000000000000000815260040161151e90613523565b60405180910390fd5b611532838383611b28565b61153d6000826112aa565b6001600360008573ffffffffffffffffffffffffffffffffffffffff1673ffffffffffffffffffffffffffffffffffffffff168152602001908152602001600020600082825461158d91906138b9565b925050819055506001600360008473ffffffffffffffffffffffffffffffffffffffff1673ffffffffffffffffffffffffffffffffffffffff16815260200190815260200160002060008282546115e49190613832565b92505081905550816002600083815260200190815260200160002060006101000a81548173ffffffffffffffffffffffffffffffffffffffff021916908373ffffffffffffffffffffffffffffffffffffffff160217905550808273ffffffffffffffffffffffffffffffffffffffff168473ffffffffffffffffffffffffffffffffffffffff167fddf252ad1be2c89b69c2b068fc378daa952ba7f163c4a11628f55a4df523b3ef60405160405180910390a4505050565b6116a56108da565b6116e4576040517f08c379a00000000000000000000000000000000000000000000000000000000081526004016116db90613483565b60405180910390fd5b6000600b60006101000a81548160ff0219169083151502179055507f5db9ee0a495bf2e6ff9c91a7834c1ba4fdd244a5e8aa4e537bd38aeae4b073aa6117286112a2565b60405161173591906133df565b60405180910390a1565b6117476108da565b15611787576040517f08c379a000000000000000000000000000000000000000000000000000000000815260040161177e90613583565b60405180910390fd5b6001600b60006101000a81548160ff0219169083151502179055507f62e78cea01bee320cd4e420270b5ea74000d11b0c9f74754ebdbfc544b05a2586117cb6112a2565b6040516117d891906133df565b60405180910390a1565b6117ed848484611441565b6117f984848484611b80565b611838576040517f08c379a000000000000000000000000000000000000000000000000000000000815260040161182f906134c3565b60405180910390fd5b50505050565b606061184982611236565b611888576040517f08c379a000000000000000000000000000000000000000000000000000000000815260040161187f90613643565b60405180910390fd5b6000600a600084815260200190815260200160002080546118a8906139a3565b80601f01602080910402602001604051908101604052809291908181526020018280546118d4906139a3565b80156119215780601f106118f657610100808354040283529160200191611921565b820191906000526020600020905b81548152906001019060200180831161190457829003601f168201915b505050505090506000611932611d17565b905060008151141561194857819250505061198b565b60008251111561197d5780826040516020016119659291906133bb565b6040516020818303038152906040529250505061198b565b61198684611d2e565b925050505b919050565b6001816000016000828254019250508190555050565b600081600001549050919050565b6119ce828260405180602001604052806000815250611dd5565b5050565b6119db82611236565b611a1a576040517f08c379a0000000000000000000000000000000000000000000000000000000008152600401611a1190613603565b60405180910390fd5b80600a60008481526020019081526020016000209080519060200190611a419291906126b9565b505050565b60007f80ac58cd000000000000000000000000000000000000000000000000000000007bffffffffffffffffffffffffffffffffffffffffffffffffffffffff1916827bffffffffffffffffffffffffffffffffffffffffffffffffffffffff19161480611b1157507f5b5e139f000000000000000000000000000000000000000000000000000000007bffffffffffffffffffffffffffffffffffffffffffffffffffffffff1916827bffffffffffffffffffffffffffffffffffffffffffffffffffffffff1916145b80611b215750611b2082611e30565b5b9050919050565b611b306108da565b15611b70576040517f08c379a0000000000000000000000000000000000000000000000000000000008152600401611b6790613583565b60405180910390fd5b611b7b838383611e9a565b505050565b6000611ba18473ffffffffffffffffffffffffffffffffffffffff16611fae565b15611d0a578373ffffffffffffffffffffffffffffffffffffffff1663150b7a02611bca6112a2565b8786866040518563ffffffff1660e01b8152600401611bec94939291906133fa565b602060405180830381600087803b158015611c0657600080fd5b505af1925050508015611c3757506040513d601f19601f82011682018060405250810190611c349190612ab9565b60015b611cba573d8060008114611c67576040519150601f19603f3d011682016040523d82523d6000602084013e611c6c565b606091505b50600081511415611cb2576040517f08c379a0000000000000000000000000000000000000000000000000000000008152600401611ca9906134c3565b60405180910390fd5b805181602001fd5b63150b7a0260e01b7bffffffffffffffffffffffffffffffffffffffffffffffffffffffff1916817bffffffffffffffffffffffffffffffffffffffffffffffffffffffff191614915050611d0f565b600190505b949350505050565b606060405180602001604052806000815250905090565b6060611d3982611236565b611d78576040517f08c379a0000000000000000000000000000000000000000000000000000000008152600401611d6f906136c3565b60405180910390fd5b6000611d82611d17565b90506000815111611da25760405180602001604052806000815250611dcd565b80611dac84611fc1565b604051602001611dbd9291906133bb565b6040516020818303038152906040525b915050919050565b611ddf838361216e565b611dec6000848484611b80565b611e2b576040517f08c379a0000000000000000000000000000000000000000000000000000000008152600401611e22906134c3565b60405180910390fd5b505050565b60007f01ffc9a7000000000000000000000000000000000000000000000000000000007bffffffffffffffffffffffffffffffffffffffffffffffffffffffff1916827bffffffffffffffffffffffffffffffffffffffffffffffffffffffff1916149050919050565b611ea583838361233c565b600073ffffffffffffffffffffffffffffffffffffffff168373ffffffffffffffffffffffffffffffffffffffff161415611ee857611ee381612341565b611f27565b8173ffffffffffffffffffffffffffffffffffffffff168373ffffffffffffffffffffffffffffffffffffffff1614611f2657611f25838261238a565b5b5b600073ffffffffffffffffffffffffffffffffffffffff168273ffffffffffffffffffffffffffffffffffffffff161415611f6a57611f65816124f7565b611fa9565b8273ffffffffffffffffffffffffffffffffffffffff168273ffffffffffffffffffffffffffffffffffffffff1614611fa857611fa7828261263a565b5b5b505050565b600080823b905060008111915050919050565b60606000821415612009576040518060400160405280600181526020017f30000000000000000000000000000000000000000000000000000000000000008152509050612169565b600082905060005b6000821461203b578080612024906139d5565b915050600a826120349190613888565b9150612011565b60008167ffffffffffffffff81111561207d577f4e487b7100000000000000000000000000000000000000000000000000000000600052604160045260246000fd5b6040519080825280601f01601f1916602001820160405280156120af5781602001600182028036833780820191505090505b5090505b60008514612162576001826120c891906138b9565b9150600a856120d79190613a1e565b60306120e39190613832565b60f81b81838151811061211f577f4e487b7100000000000000000000000000000000000000000000000000000000600052603260045260246000fd5b60200101907effffffffffffffffffffffffffffffffffffffffffffffffffffffffffffff1916908160001a905350600a8561215b9190613888565b94506120b3565b8093505050505b919050565b600073ffffffffffffffffffffffffffffffffffffffff168273ffffffffffffffffffffffffffffffffffffffff1614156121de576040517f08c379a00000000000000000000000000000000000000000000000000000000081526004016121d590613623565b60405180910390fd5b6121e781611236565b15612227576040517f08c379a000000000000000000000000000000000000000000000000000000000815260040161221e90613503565b60405180910390fd5b61223360008383611b28565b6001600360008473ffffffffffffffffffffffffffffffffffffffff1673ffffffffffffffffffffffffffffffffffffffff16815260200190815260200160002060008282546122839190613832565b92505081905550816002600083815260200190815260200160002060006101000a81548173ffffffffffffffffffffffffffffffffffffffff021916908373ffffffffffffffffffffffffffffffffffffffff160217905550808273ffffffffffffffffffffffffffffffffffffffff16600073ffffffffffffffffffffffffffffffffffffffff167fddf252ad1be2c89b69c2b068fc378daa952ba7f163c4a11628f55a4df523b3ef60405160405180910390a45050565b505050565b6008805490506009600083815260200190815260200160002081905550600881908060018154018082558091505060019003906000526020600020016000909190919091505550565b60006001612397846109a3565b6123a191906138b9565b9050600060076000848152602001908152602001600020549050818114612486576000600660008673ffffffffffffffffffffffffffffffffffffffff1673ffffffffffffffffffffffffffffffffffffffff168152602001908152602001600020600084815260200190815260200160002054905080600660008773ffffffffffffffffffffffffffffffffffffffff1673ffffffffffffffffffffffffffffffffffffffff168152602001908152602001600020600084815260200190815260200160002081905550816007600083815260200190815260200160002081905550505b6007600084815260200190815260200160002060009055600660008573ffffffffffffffffffffffffffffffffffffffff1673ffffffffffffffffffffffffffffffffffffffff16815260200190815260200160002060008381526020019081526020016000206000905550505050565b6000600160088054905061250b91906138b9565b9050600060096000848152602001908152602001600020549050600060088381548110612561577f4e487b7100000000000000000000000000000000000000000000000000000000600052603260045260246000fd5b9060005260206000200154905080600883815481106125a9577f4e487b7100000000000000000000000000000000000000000000000000000000600052603260045260246000fd5b90600052602060002001819055508160096000838152602001908152602001600020819055506009600085815260200190815260200160002060009055600880548061261e577f4e487b7100000000000000000000000000000000000000000000000000000000600052603160045260246000fd5b6001900381819060005260206000200160009055905550505050565b6000612645836109a3565b905081600660008573ffffffffffffffffffffffffffffffffffffffff1673ffffffffffffffffffffffffffffffffffffffff168152602001908152602001600020600083815260200190815260200160002081905550806007600084815260200190815260200160002081905550505050565b8280546126c5906139a3565b90600052602060002090601f0160209004810192826126e7576000855561272e565b82601f1061270057805160ff191683800117855561272e565b8280016001018555821561272e579182015b8281111561272d578251825591602001919060010190612712565b5b50905061273b919061273f565b5090565b5b80821115612758576000816000905550600101612740565b5090565b600061276f61276a8461378f565b61375e565b90508281526020810184848401111561278757600080fd5b612792848285613961565b509392505050565b60006127ad6127a8846137bf565b61375e565b9050828152602081018484840111156127c557600080fd5b6127d0848285613961565b509392505050565b6000813590506127e781613b1c565b92915050565b6000813590506127fc81613b33565b92915050565b60008135905061281181613b4a565b92915050565b60008151905061282681613b4a565b92915050565b600082601f83011261283d57600080fd5b813561284d84826020860161275c565b91505092915050565b600082601f83011261286757600080fd5b813561287784826020860161279a565b91505092915050565b60008135905061288f81613b61565b92915050565b6000602082840312156128a757600080fd5b60006128b5848285016127d8565b91505092915050565b600080604083850312156128d157600080fd5b60006128df858286016127d8565b92505060206128f0858286016127d8565b9150509250929050565b60008060006060848603121561290f57600080fd5b600061291d868287016127d8565b935050602061292e868287016127d8565b925050604061293f86828701612880565b9150509250925092565b6000806000806080858703121561295f57600080fd5b600061296d878288016127d8565b945050602061297e878288016127d8565b935050604061298f87828801612880565b925050606085013567ffffffffffffffff8111156129ac57600080fd5b6129b88782880161282c565b91505092959194509250565b600080604083850312156129d757600080fd5b60006129e5858286016127d8565b92505060206129f6858286016127ed565b9150509250929050565b60008060408385031215612a1357600080fd5b6000612a21858286016127d8565b925050602083013567ffffffffffffffff811115612a3e57600080fd5b612a4a85828601612856565b9150509250929050565b60008060408385031215612a6757600080fd5b6000612a75858286016127d8565b9250506020612a8685828601612880565b9150509250929050565b600060208284031215612aa257600080fd5b6000612ab084828501612802565b91505092915050565b600060208284031215612acb57600080fd5b6000612ad984828501612817565b91505092915050565b600060208284031215612af457600080fd5b6000612b0284828501612880565b91505092915050565b612b14816138ed565b82525050565b612b23816138ff565b82525050565b6000612b34826137ef565b612b3e8185613805565b9350612b4e818560208601613970565b612b5781613b0b565b840191505092915050565b6000612b6d826137fa565b612b778185613816565b9350612b87818560208601613970565b612b9081613b0b565b840191505092915050565b6000612ba6826137fa565b612bb08185613827565b9350612bc0818560208601613970565b80840191505092915050565b6000612bd9601483613816565b91507f5061757361626c653a206e6f74207061757365640000000000000000000000006000830152602082019050919050565b6000612c19602b83613816565b91507f455243373231456e756d657261626c653a206f776e657220696e646578206f7560008301527f74206f6620626f756e64730000000000000000000000000000000000000000006020830152604082019050919050565b6000612c7f603283613816565b91507f4552433732313a207472616e7366657220746f206e6f6e20455243373231526560008301527f63656976657220696d706c656d656e74657200000000000000000000000000006020830152604082019050919050565b6000612ce5602683613816565b91507f4f776e61626c653a206e6577206f776e657220697320746865207a65726f206160008301527f64647265737300000000000000000000000000000000000000000000000000006020830152604082019050919050565b6000612d4b601c83613816565b91507f4552433732313a20746f6b656e20616c7265616479206d696e746564000000006000830152602082019050919050565b6000612d8b602483613816565b91507f4552433732313a207472616e7366657220746f20746865207a65726f2061646460008301527f72657373000000000000000000000000000000000000000000000000000000006020830152604082019050919050565b6000612df1601983613816565b91507f4552433732313a20617070726f766520746f2063616c6c6572000000000000006000830152602082019050919050565b6000612e31602c83613816565b91507f4552433732313a206f70657261746f7220717565727920666f72206e6f6e657860008301527f697374656e7420746f6b656e00000000000000000000000000000000000000006020830152604082019050919050565b6000612e97601083613816565b91507f5061757361626c653a20706175736564000000000000000000000000000000006000830152602082019050919050565b6000612ed7603883613816565b91507f4552433732313a20617070726f76652063616c6c6572206973206e6f74206f7760008301527f6e6572206e6f7220617070726f76656420666f7220616c6c00000000000000006020830152604082019050919050565b6000612f3d602a83613816565b91507f4552433732313a2062616c616e636520717565727920666f7220746865207a6560008301527f726f2061646472657373000000000000000000000000000000000000000000006020830152604082019050919050565b6000612fa3602983613816565b91507f4552433732313a206f776e657220717565727920666f72206e6f6e657869737460008301527f656e7420746f6b656e00000000000000000000000000000000000000000000006020830152604082019050919050565b6000613009602e83613816565b91507f45524337323155524953746f726167653a2055524920736574206f66206e6f6e60008301527f6578697374656e7420746f6b656e0000000000000000000000000000000000006020830152604082019050919050565b600061306f602083613816565b91507f4552433732313a206d696e7420746f20746865207a65726f20616464726573736000830152602082019050919050565b60006130af603183613816565b91507f45524337323155524953746f726167653a2055524920717565727920666f722060008301527f6e6f6e6578697374656e7420746f6b656e0000000000000000000000000000006020830152604082019050919050565b6000613115602c83613816565b91507f4552433732313a20617070726f76656420717565727920666f72206e6f6e657860008301527f697374656e7420746f6b656e00000000000000000000000000000000000000006020830152604082019050919050565b600061317b602083613816565b91507f4f776e61626c653a2063616c6c6572206973206e6f7420746865206f776e65726000830152602082019050919050565b60006131bb602983613816565b91507f4552433732313a207472616e73666572206f6620746f6b656e2074686174206960008301527f73206e6f74206f776e00000000000000000000000000000000000000000000006020830152604082019050919050565b6000613221602f83613816565b91507f4552433732314d657461646174613a2055524920717565727920666f72206e6f60008301527f6e6578697374656e7420746f6b656e00000000000000000000000000000000006020830152604082019050919050565b6000613287602183613816565b91507f4552433732313a20617070726f76616c20746f2063757272656e74206f776e6560008301527f72000000000000000000000000000000000000000000000000000000000000006020830152604082019050919050565b60006132ed603183613816565b91507f4552433732313a207472616e736665722063616c6c6572206973206e6f74206f60008301527f776e6572206e6f7220617070726f7665640000000000000000000000000000006020830152604082019050919050565b6000613353602c83613816565b91507f455243373231456e756d657261626c653a20676c6f62616c20696e646578206f60008301527f7574206f6620626f756e647300000000000000000000000000000000000000006020830152604082019050919050565b6133b581613957565b82525050565b60006133c78285612b9b565b91506133d38284612b9b565b91508190509392505050565b60006020820190506133f46000830184612b0b565b92915050565b600060808201905061340f6000830187612b0b565b61341c6020830186612b0b565b61342960408301856133ac565b818103606083015261343b8184612b29565b905095945050505050565b600060208201905061345b6000830184612b1a565b92915050565b6000602082019050818103600083015261347b8184612b62565b905092915050565b6000602082019050818103600083015261349c81612bcc565b9050919050565b600060208201905081810360008301526134bc81612c0c565b9050919050565b600060208201905081810360008301526134dc81612c72565b9050919050565b600060208201905081810360008301526134fc81612cd8565b9050919050565b6000602082019050818103600083015261351c81612d3e565b9050919050565b6000602082019050818103600083015261353c81612d7e565b9050919050565b6000602082019050818103600083015261355c81612de4565b9050919050565b6000602082019050818103600083015261357c81612e24565b9050919050565b6000602082019050818103600083015261359c81612e8a565b9050919050565b600060208201905081810360008301526135bc81612eca565b9050919050565b600060208201905081810360008301526135dc81612f30565b9050919050565b600060208201905081810360008301526135fc81612f96565b9050919050565b6000602082019050818103600083015261361c81612ffc565b9050919050565b6000602082019050818103600083015261363c81613062565b9050919050565b6000602082019050818103600083015261365c816130a2565b9050919050565b6000602082019050818103600083015261367c81613108565b9050919050565b6000602082019050818103600083015261369c8161316e565b9050919050565b600060208201905081810360008301526136bc816131ae565b9050919050565b600060208201905081810360008301526136dc81613214565b9050919050565b600060208201905081810360008301526136fc8161327a565b9050919050565b6000602082019050818103600083015261371c816132e0565b9050919050565b6000602082019050818103600083015261373c81613346565b9050919050565b600060208201905061375860008301846133ac565b92915050565b6000604051905081810181811067ffffffffffffffff8211171561378557613784613adc565b5b8060405250919050565b600067ffffffffffffffff8211156137aa576137a9613adc565b5b601f19601f8301169050602081019050919050565b600067ffffffffffffffff8211156137da576137d9613adc565b5b601f19601f8301169050602081019050919050565b600081519050919050565b600081519050919050565b600082825260208201905092915050565b600082825260208201905092915050565b600081905092915050565b600061383d82613957565b915061384883613957565b9250827fffffffffffffffffffffffffffffffffffffffffffffffffffffffffffffffff0382111561387d5761387c613a4f565b5b828201905092915050565b600061389382613957565b915061389e83613957565b9250826138ae576138ad613a7e565b5b828204905092915050565b60006138c482613957565b91506138cf83613957565b9250828210156138e2576138e1613a4f565b5b828203905092915050565b60006138f882613937565b9050919050565b60008115159050919050565b60007fffffffff0000000000000000000000000000000000000000000000000000000082169050919050565b600073ffffffffffffffffffffffffffffffffffffffff82169050919050565b6000819050919050565b82818337600083830152505050565b60005b8381101561398e578082015181840152602081019050613973565b8381111561399d576000848401525b50505050565b600060028204905060018216806139bb57607f821691505b602082108114156139cf576139ce613aad565b5b50919050565b60006139e082613957565b91507fffffffffffffffffffffffffffffffffffffffffffffffffffffffffffffffff821415613a1357613a12613a4f565b5b600182019050919050565b6000613a2982613957565b9150613a3483613957565b925082613a4457613a43613a7e565b5b828206905092915050565b7f4e487b7100000000000000000000000000000000000000000000000000000000600052601160045260246000fd5b7f4e487b7100000000000000000000000000000000000000000000000000000000600052601260045260246000fd5b7f4e487b7100000000000000000000000000000000000000000000000000000000600052602260045260246000fd5b7f4e487b7100000000000000000000000000000000000000000000000000000000600052604160045260246000fd5b6000601f19601f8301169050919050565b613b25816138ed565b8114613b3057600080fd5b50565b613b3c816138ff565b8114613b4757600080fd5b50565b613b538161390b565b8114613b5e57600080fd5b50565b613b6a81613957565b8114613b7557600080fd5b5056fea26469706673582212202070265e4ba4dbeaa0e1e1dbb7b95c20064528dea618b2939b16427064c7c2ce64736f6c63430008000033",
  "immutableReferences": {},
  "source": "// SPDX-License-Identifier: MIT\npragma solidity ^0.8.0;\n\nimport \"@openzeppelin/contracts/token/ERC721/ERC721.sol\";\nimport \"@openzeppelin/contracts/token/ERC721/extensions/ERC721Enumerable.sol\";\nimport \"@openzeppelin/contracts/token/ERC721/extensions/ERC721URIStorage.sol\";\nimport \"@openzeppelin/contracts/security/Pausable.sol\";\nimport \"@openzeppelin/contracts/access/Ownable.sol\";\nimport \"@openzeppelin/contracts/utils/Counters.sol\";\n\ncontract MoonwolfNFT is\n    ERC721,\n    ERC721Enumerable,\n    ERC721URIStorage,\n    Pausable,\n    Ownable\n{\n    using Counters for Counters.Counter;\n    Counters.Counter private _tokenIdSequence;\n\n    constructor() ERC721(\"Moonwolf NFT\", \"MNFT\") {}\n\n    function pause() public onlyOwner {\n        _pause();\n    }\n\n    function unpause() public onlyOwner {\n        _unpause();\n    }\n\n    function mint(address to, string memory tokenURL) public onlyOwner {\n        // tokenId sequence starts from 1\n        _tokenIdSequence.increment();\n        uint256 tokenId = _tokenIdSequence.current();\n        _safeMint(to, tokenId);\n        _setTokenURI(tokenId, tokenURL);\n    }\n\n    function _beforeTokenTransfer(\n        address from,\n        address to,\n        uint256 tokenId\n    ) internal override(ERC721, ERC721Enumerable) whenNotPaused {\n        super._beforeTokenTransfer(from, to, tokenId);\n    }\n\n    function _burn(uint256 tokenId)\n        internal\n        override(ERC721, ERC721URIStorage)\n    {\n        super._burn(tokenId);\n    }\n\n    function tokenURI(uint256 tokenId)\n        public\n        view\n        override(ERC721, ERC721URIStorage)\n        returns (string memory)\n    {\n        return super.tokenURI(tokenId);\n    }\n\n    function supportsInterface(bytes4 interfaceId)\n        public\n        view\n        override(ERC721, ERC721Enumerable)\n        returns (bool)\n    {\n        return super.supportsInterface(interfaceId);\n    }\n}\n",
  "sourcePath": "/Users/szabolcs/Documents/Personal/Szakmai/Ethereum/moonwolf.io-poc/contracts/MoonwolfNFT.sol",
  "compiler": {
    "name": "solc",
    "version": "0.8.0+commit.c7dfd78e.Emscripten.clang"
  },
  "schemaVersion": "3.3.4",
  "updatedAt": "2021-04-24T11:40:14.471Z",
  "networkType": "ethereum",
  "devdoc": {
    "kind": "dev",
    "methods": {
      "approve(address,uint256)": {
        "details": "See {IERC721-approve}."
      },
      "balanceOf(address)": {
        "details": "See {IERC721-balanceOf}."
      },
      "getApproved(uint256)": {
        "details": "See {IERC721-getApproved}."
      },
      "isApprovedForAll(address,address)": {
        "details": "See {IERC721-isApprovedForAll}."
      },
      "name()": {
        "details": "See {IERC721Metadata-name}."
      },
      "owner()": {
        "details": "Returns the address of the current owner."
      },
      "ownerOf(uint256)": {
        "details": "See {IERC721-ownerOf}."
      },
      "paused()": {
        "details": "Returns true if the contract is paused, and false otherwise."
      },
      "renounceOwnership()": {
        "details": "Leaves the contract without owner. It will not be possible to call `onlyOwner` functions anymore. Can only be called by the current owner. NOTE: Renouncing ownership will leave the contract without an owner, thereby removing any functionality that is only available to the owner."
      },
      "safeTransferFrom(address,address,uint256)": {
        "details": "See {IERC721-safeTransferFrom}."
      },
      "safeTransferFrom(address,address,uint256,bytes)": {
        "details": "See {IERC721-safeTransferFrom}."
      },
      "setApprovalForAll(address,bool)": {
        "details": "See {IERC721-setApprovalForAll}."
      },
      "symbol()": {
        "details": "See {IERC721Metadata-symbol}."
      },
      "tokenByIndex(uint256)": {
        "details": "See {IERC721Enumerable-tokenByIndex}."
      },
      "tokenOfOwnerByIndex(address,uint256)": {
        "details": "See {IERC721Enumerable-tokenOfOwnerByIndex}."
      },
      "totalSupply()": {
        "details": "See {IERC721Enumerable-totalSupply}."
      },
      "transferFrom(address,address,uint256)": {
        "details": "See {IERC721-transferFrom}."
      },
      "transferOwnership(address)": {
        "details": "Transfers ownership of the contract to a new account (`newOwner`). Can only be called by the current owner."
      }
    },
    "version": 1
  },
  "userdoc": {
    "kind": "user",
    "methods": {},
    "version": 1
  }
}